{
  "address": "0x64C665436F278781251F4D290962ff29CFD8C512",
  "abi": [
    {
      "inputs": [
        {
          "internalType": "contract IPollFactory",
          "name": "_pollFactory",
          "type": "address"
        },
        {
          "internalType": "contract IMessageProcessorFactory",
          "name": "_messageProcessorFactory",
          "type": "address"
        },
        {
          "internalType": "contract ITallyFactory",
          "name": "_tallyFactory",
          "type": "address"
        },
        {
          "internalType": "contract SignUpGatekeeper",
          "name": "_signUpGatekeeper",
          "type": "address"
        },
        {
          "internalType": "contract InitialVoiceCreditProxy",
          "name": "_initialVoiceCreditProxy",
          "type": "address"
        },
        {
          "internalType": "uint8",
          "name": "_stateTreeDepth",
          "type": "uint8"
        },
        {
          "internalType": "uint256[5]",
          "name": "_emptyBallotRoots",
          "type": "uint256[5]"
        }
      ],
      "stateMutability": "nonpayable",
      "type": "constructor"
    },
    {
      "inputs": [],
      "name": "DefaultZeroBadIndex",
      "type": "error"
    },
    {
      "inputs": [],
      "name": "DepthTooLarge",
      "type": "error"
    },
    {
      "inputs": [],
      "name": "InvalidMessage",
      "type": "error"
    },
    {
      "inputs": [],
      "name": "InvalidPubKey",
      "type": "error"
    },
    {
      "inputs": [],
      "name": "NumberOfLeavesCannotBeZero",
      "type": "error"
    },
    {
      "inputs": [
        {
          "internalType": "address",
          "name": "owner",
          "type": "address"
        }
      ],
      "name": "OwnableInvalidOwner",
      "type": "error"
    },
    {
      "inputs": [
        {
          "internalType": "address",
          "name": "account",
          "type": "address"
        }
      ],
      "name": "OwnableUnauthorizedAccount",
      "type": "error"
    },
    {
      "inputs": [
        {
          "internalType": "address",
          "name": "_poll",
          "type": "address"
        }
      ],
      "name": "PollAddressDoesNotExist",
      "type": "error"
    },
    {
      "inputs": [
        {
          "internalType": "uint256",
          "name": "pollId",
          "type": "uint256"
        }
      ],
      "name": "PollDoesNotExist",
      "type": "error"
    },
    {
      "inputs": [],
      "name": "PoseidonHashLibrariesNotLinked",
      "type": "error"
    },
    {
      "inputs": [],
      "name": "PubKeyAlreadyRegistered",
      "type": "error"
    },
    {
      "inputs": [],
      "name": "TooManySignups",
      "type": "error"
    },
    {
      "anonymous": false,
      "inputs": [
        {
          "indexed": false,
          "internalType": "uint256",
          "name": "_pollId",
          "type": "uint256"
        },
        {
          "indexed": true,
          "internalType": "uint256",
          "name": "_coordinatorPubKeyX",
          "type": "uint256"
        },
        {
          "indexed": true,
          "internalType": "uint256",
          "name": "_coordinatorPubKeyY",
          "type": "uint256"
        },
        {
          "components": [
            {
              "internalType": "address",
              "name": "poll",
              "type": "address"
            },
            {
              "internalType": "address",
              "name": "messageProcessor",
              "type": "address"
            },
            {
              "internalType": "address",
              "name": "tally",
              "type": "address"
            }
          ],
          "indexed": false,
          "internalType": "struct MACI.PollContracts",
          "name": "pollAddr",
          "type": "tuple"
        },
        {
          "indexed": false,
          "internalType": "enum DomainObjs.Mode",
          "name": "_mode",
          "type": "uint8"
        }
      ],
      "name": "DeployPoll",
      "type": "event"
    },
    {
      "anonymous": false,
      "inputs": [
        {
          "indexed": true,
          "internalType": "address",
          "name": "previousOwner",
          "type": "address"
        },
        {
          "indexed": true,
          "internalType": "address",
          "name": "newOwner",
          "type": "address"
        }
      ],
      "name": "OwnershipTransferred",
      "type": "event"
    },
    {
      "anonymous": false,
      "inputs": [
        {
          "indexed": true,
          "internalType": "uint256",
          "name": "pollId",
          "type": "uint256"
        },
        {
          "indexed": true,
          "internalType": "address",
          "name": "creator",
          "type": "address"
        },
        {
          "components": [
            {
              "internalType": "address",
              "name": "poll",
              "type": "address"
            },
            {
              "internalType": "address",
              "name": "messageProcessor",
              "type": "address"
            },
            {
              "internalType": "address",
              "name": "tally",
              "type": "address"
            }
          ],
          "indexed": false,
          "internalType": "struct MACI.PollContracts",
          "name": "pollContracts",
          "type": "tuple"
        },
        {
          "indexed": false,
          "internalType": "string",
          "name": "name",
          "type": "string"
        },
        {
          "indexed": false,
          "internalType": "string[]",
          "name": "options",
          "type": "string[]"
        },
        {
          "indexed": false,
          "internalType": "string",
          "name": "metadata",
          "type": "string"
        },
        {
          "indexed": false,
          "internalType": "uint256",
          "name": "startTime",
          "type": "uint256"
        },
        {
          "indexed": false,
          "internalType": "uint256",
          "name": "endTime",
          "type": "uint256"
        }
      ],
      "name": "PollCreated",
      "type": "event"
    },
    {
      "anonymous": false,
      "inputs": [
        {
          "indexed": true,
          "internalType": "uint256",
          "name": "pollId",
          "type": "uint256"
        },
        {
          "indexed": false,
          "internalType": "string",
          "name": "tallyJsonCID",
          "type": "string"
        }
      ],
      "name": "PollTallyCIDUpdated",
      "type": "event"
    },
    {
      "anonymous": false,
      "inputs": [
        {
          "indexed": false,
          "internalType": "uint256",
          "name": "_stateIndex",
          "type": "uint256"
        },
        {
          "indexed": true,
          "internalType": "uint256",
          "name": "_userPubKeyX",
          "type": "uint256"
        },
        {
          "indexed": true,
          "internalType": "uint256",
          "name": "_userPubKeyY",
          "type": "uint256"
        },
        {
          "indexed": false,
          "internalType": "uint256",
          "name": "_voiceCreditBalance",
          "type": "uint256"
        },
        {
          "indexed": false,
          "internalType": "uint256",
          "name": "_timestamp",
          "type": "uint256"
        }
      ],
      "name": "SignUp",
      "type": "event"
    },
    {
      "inputs": [],
      "name": "MESSAGE_DATA_LENGTH",
      "outputs": [
        {
          "internalType": "uint8",
          "name": "",
          "type": "uint8"
        }
      ],
      "stateMutability": "view",
      "type": "function"
    },
    {
      "inputs": [],
      "name": "coordinatorPubKey",
      "outputs": [
        {
          "internalType": "uint256",
          "name": "x",
          "type": "uint256"
        },
        {
          "internalType": "uint256",
          "name": "y",
          "type": "uint256"
        }
      ],
      "stateMutability": "view",
      "type": "function"
    },
    {
      "inputs": [
        {
          "internalType": "string",
          "name": "_name",
          "type": "string"
        },
        {
          "internalType": "string[]",
          "name": "_options",
          "type": "string[]"
        },
        {
          "internalType": "string",
          "name": "_metadata",
          "type": "string"
        },
        {
          "internalType": "uint256",
          "name": "_duration",
          "type": "uint256"
        },
        {
          "internalType": "enum DomainObjs.Mode",
          "name": "isQv",
          "type": "uint8"
        }
      ],
      "name": "createPoll",
      "outputs": [],
      "stateMutability": "nonpayable",
      "type": "function"
    },
    {
      "inputs": [
        {
          "internalType": "uint256",
          "name": "_duration",
          "type": "uint256"
        },
        {
          "components": [
            {
              "internalType": "uint8",
              "name": "intStateTreeDepth",
              "type": "uint8"
            },
            {
              "internalType": "uint8",
              "name": "messageTreeSubDepth",
              "type": "uint8"
            },
            {
              "internalType": "uint8",
              "name": "messageTreeDepth",
              "type": "uint8"
            },
            {
              "internalType": "uint8",
              "name": "voteOptionTreeDepth",
              "type": "uint8"
            }
          ],
          "internalType": "struct Params.TreeDepths",
          "name": "_treeDepths",
          "type": "tuple"
        },
        {
          "components": [
            {
              "internalType": "uint256",
              "name": "x",
              "type": "uint256"
            },
            {
              "internalType": "uint256",
              "name": "y",
              "type": "uint256"
            }
          ],
          "internalType": "struct DomainObjs.PubKey",
          "name": "_coordinatorPubKey",
          "type": "tuple"
        },
        {
          "internalType": "address",
          "name": "_verifier",
          "type": "address"
        },
        {
          "internalType": "address",
          "name": "_vkRegistry",
          "type": "address"
        },
        {
          "internalType": "enum DomainObjs.Mode",
          "name": "_mode",
          "type": "uint8"
        }
      ],
      "name": "deployPoll",
      "outputs": [
        {
          "components": [
            {
              "internalType": "address",
              "name": "poll",
              "type": "address"
            },
            {
              "internalType": "address",
              "name": "messageProcessor",
              "type": "address"
            },
            {
              "internalType": "address",
              "name": "tally",
              "type": "address"
            }
          ],
          "internalType": "struct MACI.PollContracts",
          "name": "pollAddr",
          "type": "tuple"
        }
      ],
      "stateMutability": "nonpayable",
      "type": "function"
    },
    {
      "inputs": [
        {
          "internalType": "uint256",
          "name": "",
          "type": "uint256"
        }
      ],
      "name": "emptyBallotRoots",
      "outputs": [
        {
          "internalType": "uint256",
          "name": "",
          "type": "uint256"
        }
      ],
      "stateMutability": "view",
      "type": "function"
    },
    {
      "inputs": [
        {
          "internalType": "uint256",
          "name": "_pollId",
          "type": "uint256"
        }
      ],
      "name": "fetchPoll",
      "outputs": [
        {
          "components": [
            {
              "internalType": "uint256",
              "name": "id",
              "type": "uint256"
            },
            {
              "internalType": "string",
              "name": "name",
              "type": "string"
            },
            {
              "internalType": "bytes",
              "name": "encodedOptions",
              "type": "bytes"
            },
            {
              "internalType": "string",
              "name": "metadata",
              "type": "string"
            },
            {
              "components": [
                {
                  "internalType": "address",
                  "name": "poll",
                  "type": "address"
                },
                {
                  "internalType": "address",
                  "name": "messageProcessor",
                  "type": "address"
                },
                {
                  "internalType": "address",
                  "name": "tally",
                  "type": "address"
                }
              ],
              "internalType": "struct MACI.PollContracts",
              "name": "pollContracts",
              "type": "tuple"
            },
            {
              "internalType": "uint256",
              "name": "startTime",
              "type": "uint256"
            },
            {
              "internalType": "uint256",
              "name": "endTime",
              "type": "uint256"
            },
            {
              "internalType": "uint256",
              "name": "numOfOptions",
              "type": "uint256"
            },
            {
              "internalType": "string[]",
              "name": "options",
              "type": "string[]"
            },
            {
              "internalType": "string",
              "name": "tallyJsonCID",
              "type": "string"
            }
          ],
          "internalType": "struct MACIWrapper.PollData",
          "name": "poll_",
          "type": "tuple"
        }
      ],
      "stateMutability": "view",
      "type": "function"
    },
    {
      "inputs": [
        {
          "internalType": "uint256",
          "name": "_page",
          "type": "uint256"
        },
        {
          "internalType": "uint256",
          "name": "_perPage",
          "type": "uint256"
        },
        {
          "internalType": "bool",
          "name": "_ascending",
          "type": "bool"
        }
      ],
      "name": "fetchPolls",
      "outputs": [
        {
          "components": [
            {
              "internalType": "uint256",
              "name": "id",
              "type": "uint256"
            },
            {
              "internalType": "string",
              "name": "name",
              "type": "string"
            },
            {
              "internalType": "bytes",
              "name": "encodedOptions",
              "type": "bytes"
            },
            {
              "internalType": "string",
              "name": "metadata",
              "type": "string"
            },
            {
              "components": [
                {
                  "internalType": "address",
                  "name": "poll",
                  "type": "address"
                },
                {
                  "internalType": "address",
                  "name": "messageProcessor",
                  "type": "address"
                },
                {
                  "internalType": "address",
                  "name": "tally",
                  "type": "address"
                }
              ],
              "internalType": "struct MACI.PollContracts",
              "name": "pollContracts",
              "type": "tuple"
            },
            {
              "internalType": "uint256",
              "name": "startTime",
              "type": "uint256"
            },
            {
              "internalType": "uint256",
              "name": "endTime",
              "type": "uint256"
            },
            {
              "internalType": "uint256",
              "name": "numOfOptions",
              "type": "uint256"
            },
            {
              "internalType": "string[]",
              "name": "options",
              "type": "string[]"
            },
            {
              "internalType": "string",
              "name": "tallyJsonCID",
              "type": "string"
            }
          ],
          "internalType": "struct MACIWrapper.PollData[]",
          "name": "polls_",
          "type": "tuple[]"
        }
      ],
      "stateMutability": "view",
      "type": "function"
    },
    {
      "inputs": [
        {
          "internalType": "uint256",
          "name": "_pollId",
          "type": "uint256"
        }
      ],
      "name": "getPoll",
      "outputs": [
        {
          "internalType": "address",
          "name": "poll",
          "type": "address"
        }
      ],
      "stateMutability": "view",
      "type": "function"
    },
    {
      "inputs": [
        {
          "internalType": "address",
          "name": "_poll",
          "type": "address"
        }
      ],
      "name": "getPollId",
      "outputs": [
        {
          "internalType": "uint256",
          "name": "pollId",
          "type": "uint256"
        }
      ],
      "stateMutability": "view",
      "type": "function"
    },
    {
      "inputs": [],
      "name": "getStateTreeRoot",
      "outputs": [
        {
          "internalType": "uint256",
          "name": "root",
          "type": "uint256"
        }
      ],
      "stateMutability": "view",
      "type": "function"
    },
    {
      "inputs": [
        {
          "internalType": "uint256[2]",
          "name": "array",
          "type": "uint256[2]"
        }
      ],
      "name": "hash2",
      "outputs": [
        {
          "internalType": "uint256",
          "name": "result",
          "type": "uint256"
        }
      ],
      "stateMutability": "pure",
      "type": "function"
    },
    {
      "inputs": [
        {
          "internalType": "uint256[3]",
          "name": "array",
          "type": "uint256[3]"
        }
      ],
      "name": "hash3",
      "outputs": [
        {
          "internalType": "uint256",
          "name": "result",
          "type": "uint256"
        }
      ],
      "stateMutability": "pure",
      "type": "function"
    },
    {
      "inputs": [
        {
          "internalType": "uint256[4]",
          "name": "array",
          "type": "uint256[4]"
        }
      ],
      "name": "hash4",
      "outputs": [
        {
          "internalType": "uint256",
          "name": "result",
          "type": "uint256"
        }
      ],
      "stateMutability": "pure",
      "type": "function"
    },
    {
      "inputs": [
        {
          "internalType": "uint256[5]",
          "name": "array",
          "type": "uint256[5]"
        }
      ],
      "name": "hash5",
      "outputs": [
        {
          "internalType": "uint256",
          "name": "result",
          "type": "uint256"
        }
      ],
      "stateMutability": "pure",
      "type": "function"
    },
    {
      "inputs": [
        {
          "internalType": "uint256",
          "name": "left",
          "type": "uint256"
        },
        {
          "internalType": "uint256",
          "name": "right",
          "type": "uint256"
        }
      ],
      "name": "hashLeftRight",
      "outputs": [
        {
          "internalType": "uint256",
          "name": "result",
          "type": "uint256"
        }
      ],
      "stateMutability": "pure",
      "type": "function"
    },
    {
      "inputs": [
        {
          "components": [
            {
              "internalType": "uint256[10]",
              "name": "data",
              "type": "uint256[10]"
            }
          ],
          "internalType": "struct DomainObjs.Message",
          "name": "_message",
          "type": "tuple"
        },
        {
          "components": [
            {
              "internalType": "uint256",
              "name": "x",
              "type": "uint256"
            },
            {
              "internalType": "uint256",
              "name": "y",
              "type": "uint256"
            }
          ],
          "internalType": "struct DomainObjs.PubKey",
          "name": "_encPubKey",
          "type": "tuple"
        }
      ],
      "name": "hashMessageAndEncPubKey",
      "outputs": [
        {
          "internalType": "uint256",
          "name": "msgHash",
          "type": "uint256"
        }
      ],
      "stateMutability": "pure",
      "type": "function"
    },
    {
      "inputs": [
        {
          "components": [
            {
              "components": [
                {
                  "internalType": "uint256",
                  "name": "x",
                  "type": "uint256"
                },
                {
                  "internalType": "uint256",
                  "name": "y",
                  "type": "uint256"
                }
              ],
              "internalType": "struct DomainObjs.PubKey",
              "name": "pubKey",
              "type": "tuple"
            },
            {
              "internalType": "uint256",
              "name": "voiceCreditBalance",
              "type": "uint256"
            },
            {
              "internalType": "uint256",
              "name": "timestamp",
              "type": "uint256"
            }
          ],
          "internalType": "struct DomainObjs.StateLeaf",
          "name": "_stateLeaf",
          "type": "tuple"
        }
      ],
      "name": "hashStateLeaf",
      "outputs": [
        {
          "internalType": "uint256",
          "name": "ciphertext",
          "type": "uint256"
        }
      ],
      "stateMutability": "pure",
      "type": "function"
    },
    {
      "inputs": [],
      "name": "initialVoiceCreditProxy",
      "outputs": [
        {
          "internalType": "contract InitialVoiceCreditProxy",
          "name": "",
          "type": "address"
        }
      ],
      "stateMutability": "view",
      "type": "function"
    },
    {
      "inputs": [
        {
          "internalType": "uint256",
          "name": "",
          "type": "uint256"
        },
        {
          "internalType": "uint256",
          "name": "",
          "type": "uint256"
        }
      ],
      "name": "isPublicKeyRegistered",
      "outputs": [
        {
          "internalType": "bool",
          "name": "",
          "type": "bool"
        }
      ],
      "stateMutability": "view",
      "type": "function"
    },
    {
      "inputs": [],
      "name": "lazyIMTData",
      "outputs": [
        {
          "internalType": "uint40",
          "name": "maxIndex",
          "type": "uint40"
        },
        {
          "internalType": "uint40",
          "name": "numberOfLeaves",
          "type": "uint40"
        }
      ],
      "stateMutability": "view",
      "type": "function"
    },
    {
      "inputs": [],
      "name": "maxSignups",
      "outputs": [
        {
          "internalType": "uint256",
          "name": "",
          "type": "uint256"
        }
      ],
      "stateMutability": "view",
      "type": "function"
    },
    {
      "inputs": [],
      "name": "messageProcessorFactory",
      "outputs": [
        {
          "internalType": "contract IMessageProcessorFactory",
          "name": "",
          "type": "address"
        }
      ],
      "stateMutability": "view",
      "type": "function"
    },
    {
      "inputs": [],
      "name": "nextPollId",
      "outputs": [
        {
          "internalType": "uint256",
          "name": "",
          "type": "uint256"
        }
      ],
      "stateMutability": "view",
      "type": "function"
    },
    {
      "inputs": [],
      "name": "numSignUps",
      "outputs": [
        {
          "internalType": "uint256",
          "name": "signUps",
          "type": "uint256"
        }
      ],
      "stateMutability": "view",
      "type": "function"
    },
    {
      "inputs": [],
      "name": "owner",
      "outputs": [
        {
          "internalType": "address",
          "name": "",
          "type": "address"
        }
      ],
      "stateMutability": "view",
      "type": "function"
    },
    {
      "inputs": [
        {
          "internalType": "uint256[2]",
          "name": "dataToPad",
          "type": "uint256[2]"
        }
      ],
      "name": "padAndHashMessage",
      "outputs": [
        {
          "components": [
            {
              "internalType": "uint256[10]",
              "name": "data",
              "type": "uint256[10]"
            }
          ],
          "internalType": "struct DomainObjs.Message",
          "name": "message",
          "type": "tuple"
        },
        {
          "components": [
            {
              "internalType": "uint256",
              "name": "x",
              "type": "uint256"
            },
            {
              "internalType": "uint256",
              "name": "y",
              "type": "uint256"
            }
          ],
          "internalType": "struct DomainObjs.PubKey",
          "name": "padKey",
          "type": "tuple"
        },
        {
          "internalType": "uint256",
          "name": "msgHash",
          "type": "uint256"
        }
      ],
      "stateMutability": "pure",
      "type": "function"
    },
    {
      "inputs": [],
      "name": "pollFactory",
      "outputs": [
        {
          "internalType": "contract IPollFactory",
          "name": "",
          "type": "address"
        }
      ],
      "stateMutability": "view",
      "type": "function"
    },
    {
      "inputs": [
        {
          "internalType": "address",
          "name": "",
          "type": "address"
        }
      ],
      "name": "pollIds",
      "outputs": [
        {
          "internalType": "uint256",
          "name": "",
          "type": "uint256"
        }
      ],
      "stateMutability": "view",
      "type": "function"
    },
    {
      "inputs": [
        {
          "internalType": "uint256",
          "name": "",
          "type": "uint256"
        }
      ],
      "name": "polls",
      "outputs": [
        {
          "internalType": "address",
          "name": "",
          "type": "address"
        }
      ],
      "stateMutability": "view",
      "type": "function"
    },
    {
      "inputs": [],
      "name": "renounceOwnership",
      "outputs": [],
      "stateMutability": "nonpayable",
      "type": "function"
    },
    {
      "inputs": [
        {
          "components": [
            {
              "internalType": "uint8",
              "name": "intStateTreeDepth",
              "type": "uint8"
            },
            {
              "internalType": "uint8",
              "name": "messageTreeSubDepth",
              "type": "uint8"
            },
            {
              "internalType": "uint8",
              "name": "messageTreeDepth",
              "type": "uint8"
            },
            {
              "internalType": "uint8",
              "name": "voteOptionTreeDepth",
              "type": "uint8"
            }
          ],
          "internalType": "struct Params.TreeDepths",
          "name": "_treeDepths",
          "type": "tuple"
        },
        {
          "components": [
            {
              "internalType": "uint256",
              "name": "x",
              "type": "uint256"
            },
            {
              "internalType": "uint256",
              "name": "y",
              "type": "uint256"
            }
          ],
          "internalType": "struct DomainObjs.PubKey",
          "name": "_coordinatorPubKey",
          "type": "tuple"
        },
        {
          "internalType": "address",
          "name": "_verifier",
          "type": "address"
        },
        {
          "internalType": "address",
          "name": "_vkRegistry",
          "type": "address"
        }
      ],
      "name": "setConfig",
      "outputs": [],
      "stateMutability": "nonpayable",
      "type": "function"
    },
    {
      "inputs": [
        {
          "internalType": "uint256[]",
          "name": "array",
          "type": "uint256[]"
        }
      ],
      "name": "sha256Hash",
      "outputs": [
        {
          "internalType": "uint256",
          "name": "result",
          "type": "uint256"
        }
      ],
      "stateMutability": "pure",
      "type": "function"
    },
    {
      "inputs": [
        {
          "components": [
            {
              "internalType": "uint256",
              "name": "x",
              "type": "uint256"
            },
            {
              "internalType": "uint256",
              "name": "y",
              "type": "uint256"
            }
          ],
          "internalType": "struct DomainObjs.PubKey",
          "name": "_pubKey",
          "type": "tuple"
        },
        {
          "internalType": "bytes",
          "name": "_signUpGatekeeperData",
          "type": "bytes"
        },
        {
          "internalType": "bytes",
          "name": "_initialVoiceCreditProxyData",
          "type": "bytes"
        }
      ],
      "name": "signUp",
      "outputs": [],
      "stateMutability": "nonpayable",
      "type": "function"
    },
    {
      "inputs": [],
      "name": "signUpGatekeeper",
      "outputs": [
        {
          "internalType": "contract SignUpGatekeeper",
          "name": "",
          "type": "address"
        }
      ],
      "stateMutability": "view",
      "type": "function"
    },
    {
      "inputs": [],
      "name": "stateTreeDepth",
      "outputs": [
        {
          "internalType": "uint8",
          "name": "",
          "type": "uint8"
        }
      ],
      "stateMutability": "view",
      "type": "function"
    },
    {
      "inputs": [],
      "name": "tallyFactory",
      "outputs": [
        {
          "internalType": "contract ITallyFactory",
          "name": "",
          "type": "address"
        }
      ],
      "stateMutability": "view",
      "type": "function"
    },
    {
      "inputs": [
        {
          "internalType": "address",
          "name": "newOwner",
          "type": "address"
        }
      ],
      "name": "transferOwnership",
      "outputs": [],
      "stateMutability": "nonpayable",
      "type": "function"
    },
    {
      "inputs": [],
      "name": "treeDepths",
      "outputs": [
        {
          "internalType": "uint8",
          "name": "intStateTreeDepth",
          "type": "uint8"
        },
        {
          "internalType": "uint8",
          "name": "messageTreeSubDepth",
          "type": "uint8"
        },
        {
          "internalType": "uint8",
          "name": "messageTreeDepth",
          "type": "uint8"
        },
        {
          "internalType": "uint8",
          "name": "voteOptionTreeDepth",
          "type": "uint8"
        }
      ],
      "stateMutability": "view",
      "type": "function"
    },
    {
      "inputs": [
        {
          "internalType": "uint256",
          "name": "_pollId",
          "type": "uint256"
        },
        {
          "internalType": "string",
          "name": "_tallyJsonCID",
          "type": "string"
        }
      ],
      "name": "updatePollTallyCID",
      "outputs": [],
      "stateMutability": "nonpayable",
      "type": "function"
    },
    {
      "inputs": [],
      "name": "verifier",
      "outputs": [
        {
          "internalType": "address",
          "name": "",
          "type": "address"
        }
      ],
      "stateMutability": "view",
      "type": "function"
    },
    {
      "inputs": [],
      "name": "vkRegistry",
      "outputs": [
        {
          "internalType": "address",
          "name": "",
          "type": "address"
        }
      ],
      "stateMutability": "view",
      "type": "function"
    }
  ],
  "transactionHash": "0xc7ae834ba5c293fe86f6ef30396ab914f350c3caeb5f68d1a2f80452bba6493b",
  "args": [
    "0x333deFDD9eF6cf1583c7483054230f900bbfDc49",
    "0x0f87Ef2AF063DfaDEcB3596c7AdE345edb840cb5",
    "0x1Ad18dC21BD7A2aDa5dE48cb93f930162e00B2f4",
    "0x2D86990AcF7f70C870c2D011f887A92d12ec5d73",
    "0xf2ffcBD160f77B8258fae4b81999C26a1b135900",
    10,
    [
      "16015576667038038422103932363190100635991292382181099511410843174865570503661",
      "166510078825589460025300915201657086611944528317298994959376081297530246971",
      "10057734083972610459557695472359628128485394923403014377687504571662791937025",
      "4904828619307091008204672239231377290495002626534171783829482835985709082773",
      "18694062287284245784028624966421731916526814537891066525886866373016385890569"
    ]
  ],
  "numDeployments": 1,
  "solcInputHash": "64762c62ede4f0db89103e938dae263f",
  "bytecode": "0x61026060406101a0528060405234620002d05762003f39803803809162000027828562000535565b833981019061016081830312620002d0578051916001600160a01b03908184168403620002d05760206101805260208301518281168103620002d0576101a05180850151806101e05284811603620002d0576060850151918483168303620002d0576080860151938585168503620002d05760a08701519660ff88168803620002d0578160df82011215620002d05783519360a08501906001600160401b0382118683101762000503575283906101608101928311620002d05760c001905b828210620004f0575050506101805160ff871611620004dc57600160ff87161b6000198101908111620002eb5764ffffffffff809181610160521660018060501b03196007541617906001818360281c16806102005201908111620002eb5760281b69ffffffffff000000000016176007557f0ef71f46e11a513c599eed9dd03576c33439bcfb1cee155316f90541e41649ba6102405260006101c0527327B6A3e1Da60c2CDce288dBa8E006B21741d4A4D610220525b61016051620001b3610200516101c051620005a6565b1660005260086101805152610240516101a0516000205561020051600181161562000301576101605190816000198183160111620002eb5762000200916000199116016101c051620005a6565b6101a0515190620002118262000519565b6101605116600052600861018051526101a05160002054815261024051610180518201526101a05151906314d2f97b60e11b825281806200025a61018051936004830162000576565b0381610220515af4908115620002dd576000916200029e575b5061024052647fffffffff6102005160011c166102005260ff60016101c05101166101c0526200019d565b9050610180513d8111620002d5575b620002b9818362000535565b81610180519181010312620002d057513862000273565b600080fd5b503d620002ad565b6101a051513d6000823e3d90fd5b634e487b7160e01b600052601160045260246000fd5b508660c05260e0526200033160ff6101e05196610100978852610120948552610140958652806080521662000559565b60a052610180519060005b60058110620004cb575050506101a05151620003588162000519565b600181526001610180518201526101a05151906314d2f97b60e11b825281806200038a61018051936004830162000576565b0381610220515af4908115620002dd5760009162000491575b50156200047d573315620004625760098054336001600160a01b0319821681179092556101a0515194167f8be0079c531659141344cd1fd0a4f28419497f9722a3daafe3b4186f6b6457e0600080a36139699384620005d0853960805184610957015260a0518481816103b4015261192d015260c0518481816116dc0152612a9a015260e051848181611f600152612b10015251838181610ab20152612b8601525182818161197a0152611f1d01525181818161062c01526119fe0152f35b6101a05151631e4fbdf760e01b815260006004820152602490fd5b6101a05151633d7ba68560e21b8152600490fd5b9050610180513d8111620004c3575b620004ac818362000535565b81610180519181010312620002d0575185620003a3565b503d620004a0565b81518155908201906001016200033c565b6101a05151633e104c7760e01b8152600490fd5b81518152610180519182019101620000e6565b634e487b7160e01b600052604160045260246000fd5b604081019081106001600160401b038211176200050357604052565b601f909101601f19168101906001600160401b038211908210176200050357604052565b8015620005705760ff8111620002eb576001901b90565b50600190565b6040810192916000915b600283106200058e57505050565b60019082518152602080910192019201919062000580565b60ff1663ffffffff0264ffffffffff91828216918203620002eb57821601908111620002eb579056fe608080604052600436101561001357600080fd5b600090813560e01c908163055575eb14611f4c57508063079410db14611f075780631096c30e14611e98578063122db15314611e7057806313fb893214611e475780631a8cbcaa14611df05780631b6ef3c514611d645780632b78657114611d465780632b7ac3f314611d1d57806331e766a514611cf85780633364120a146118a85780633364c4c81461170b578063343393b5146116c65780633dfb88b21461166e578063423f3e19146115ec57806346e47f9a146115855780634d5da86b14610c6357806358bfc37914610b405780635bb9399514610b0f57806362a361bb14610ae157806362b31f1e14610a9c57806364e0ece11461097b578063652c76e41461093d578063683f3dc3146109215780636b4575e214610820578063715018a6146107c25780637d0a81c8146107805780638a2a3dfb146106e45780638da5cb5b146106bb5780639cfced971461065b578063aab4a67014610616578063ac2f0074146105e3578063ac98e5df146105a1578063b686872014610571578063b87802c814610543578063bea140b314610442578063c8cf9ab214610409578063d7a71b9a146103d7578063df82635a1461039c578063edbfe83f146102715763f2fde38b146101e457600080fd5b3461026e57602036600319011261026e576101fd6122b9565b610205612312565b6001600160a01b0390811690811561025557600954826001600160601b0360a01b821617600955167f8be0079c531659141344cd1fd0a4f28419497f9722a3daafe3b4186f6b6457e0600080a380f35b604051631e4fbdf760e01b815260048101849052602490fd5b80fd5b503461026e57604036600319011261026e57366023121561026e5761029536612281565b6040516102a181612174565b6040516102ad81612158565b610140918236833752604051906102c382612122565b8382528360208093015281604051936102db85612158565b8236863780518552015182840152604051906102f682612122565b7f171e826ad4a870fd925e0bf0e87884e70e080879c2205ef10114f28a3b6f6dd78252828201917f2bd407d897fbbca9f88adfd2d15252e69de8c1564eb4d3d27162e259172f1a1d83526040519461034d86612174565b85526103598186613875565b6040519551969094865b600a8310610387575050506101a09550519084015251610160830152610180820152f35b81806001928b51815201990192019197610363565b503461026e578060031936011261026e5760206040517f00000000000000000000000000000000000000000000000000000000000000008152f35b503461026e5760ff60406020926103ed366122fc565b9082526011855282822090825284522054166040519015158152f35b503461026e57602036600319011261026e576020906040906001600160a01b036104316122b9565b168152601083522054604051908152f35b503461026e57606036600319011261026e57366023121561026e576040519061046a826120f1565b606482368211610500576004905b8282106105335750506040516304b98e1d60e31b81529283908390600483015b60038310610519575050506020918173dFf8A2A1c8054e93c4b015781013a1743FEAb04F5af490811561050d57906104d6575b602090604051908152f35b506020813d8211610505575b816104ef602093836121aa565b8101031261050057602090516104cb565b600080fd5b3d91506104e2565b604051903d90823e3d90fd5b815181528693506001929092019160209182019101610498565b8135815260209182019101610478565b503461026e57602036600319011261026e57600435600581101561056d5760209054604051908152f35b5080fd5b503461026e578060031936011261026e57604060075481519064ffffffffff90818116835260281c166020820152f35b503461026e578060031936011261026e576080600b5460ff604051918181168352818160081c166020840152818160101c16604084015260181c166060820152f35b503461026e57602036600319011261026e57602090600435815260068252604060018060a01b0391205416604051908152f35b503461026e578060031936011261026e576040517f00000000000000000000000000000000000000000000000000000000000000006001600160a01b03168152602090f35b503461026e5760a036600319011261026e57366023121561026e576040516106828161218f565b60a481368211610500576020926004905b8382106106ac57846106a484612e73565b604051908152f35b81358152908401908401610693565b503461026e578060031936011261026e576009546040516001600160a01b039091168152602090f35b503461026e573660031901610180811261056d576101401361026e576040519061070d82612174565b366023121561026e57506040519061072482612158565b8161014492368411610500576004905b8482106107705750508152604036610143190112610500576020916106a4916040519161076083612122565b3582526101643584830152613875565b8135815260209182019101610734565b503461026e57608036600319011261026e5760206106a46040516107a3816120f1565b6107ac366121cb565b8152604435838201526064356040820152613839565b503461026e578060031936011261026e576107db612312565b600980546001600160a01b031981169091556000906001600160a01b03167f8be0079c531659141344cd1fd0a4f28419497f9722a3daafe3b4186f6b6457e08280a380f35b503461026e5761014036600319011261026e5760803660231901126105005760405161084b8161213d565b60243560ff8116810361050057815260443560ff8116810361050057602082015260643560ff8116810361050057604082015260843560ff8116810361050057606082015260403660a3190112610500576040516108a881612122565b60a435815260c43560208201526108bd6122cf565b61010435929091906001600160a01b0384168403610500576101243594600286101561026e5760606108f58787878787600435612999565b6040805182516001600160a01b0390811682526020808501518216908301529282015190921690820152f35b503461026e578060031936011261026e576020604051600a8152f35b503461026e578060031936011261026e57602060405160ff7f0000000000000000000000000000000000000000000000000000000000000000168152f35b503461026e573660031901610100811261056d57608013610500576040516109a28161213d565b60043560ff811681036105005781526024359060ff8216820361050057602081019182526044359060ff8216820361050057604081019182526064359260ff841684036105005760608201938452604036608319011261050057604051610a0881612122565b6084358152602081019160a435835260c4359560018060a01b03958688168098036105005760ff610a376122cf565b96610a40612312565b511663ff00000062ff000061ff00600b54965160081b16935160101b16935160181b169363ffffffff191617171717600b5551600c5551600d556001600160601b0360a01b9283600e541617600e551690600f541617600f5580f35b503461026e578060031936011261026e576040517f00000000000000000000000000000000000000000000000000000000000000006001600160a01b03168152602090f35b503461026e57604036600319011261026e57366023121561026e5760206106a4610b0a36612281565b612d86565b503461026e5760206106a4610b23366122fc565b60405191610b3083612122565b6040368437825283820152612d86565b503461026e576020908160031936011261026e576004356001600160401b03811161056d573660238201121561056d578060040135610b7e816122e5565b91610b8c60405193846121aa565b8183528483016024819360051b83010191368311610c5f5791869394916024879401905b828210610c4d57505050604051838101809251909590845b818110610c3457505050610bea81610bfb94959603601f1981018352826121aa565b604051928392839251928391611f8f565b8101039060025afa1561050d577f30644e72e131a029b85045b68181585d2833e84879b9709143e1f593f0000001905106604051908152f35b8251885296860196899689965090920191600101610bc8565b81358152879450908501908501610bb0565b8580fd5b503461026e5760a036600319011261026e576004356001600160401b03811161056d57610c94903690600401612254565b906001600160401b036024351161158157366023602435011215611581576001600160401b0360243560040135116115815736602480356004013560051b8135010111611581576044356001600160401b03811161157d57610cfa903690600401612254565b91906002608435101561157957610d0f612312565b600554600e54600f54604051929592610d889290916001600160a01b039081169116610d3a8361213d565b60ff600b548181168552818160081c166020860152818160101c16604086015260181c166060840152604051610d6f81612122565b600c548152600d54602082015260843593606435612999565b9260018060a01b038451168752601060205284604088205560405195602080880152610dd487610dc66040820160243560040135602480350161235f565b03601f1981018952886121aa565b610de0606435426123e8565b9660405190610dee82612158565b878252610dfc3684866121f3565b60208301526040820152610e113685876121f3565b60608201528560808201524260a08201528760c08201526024356004013560e0820152610e43602435600401356122e5565b610e5060405191826121aa565b602480356004810135835201602082015b602480356004013560051b813501018210611533575050610100820152604051610e8a81612174565b898152610120820152868952600a60205260408920908051825560208101518051906001600160401b0382116113b1578190610ed682610ecd60018801546123f5565b60018801612446565b602090601f83116001146114c4578d926114b9575b50508160011b916000199060031b1c19161760018301555b60408101518051906001600160401b0382116113b1578190610f3582610f2c60028801546123f5565b60028801612446565b602090601f831160011461144a578d9261143f575b50508160011b916000199060031b1c19161760028301555b60608101518051906001600160401b0382116113b1578190610f9482610f8b60038801546123f5565b60038801612446565b602090601f83116001146113d0578d926113c5575b50508160011b916000199060031b1c19161760038301555b608081015180516004840180546001600160a01b03199081166001600160a01b039384161790915560208301516005860180548316918416919091179055604090920151600685018054909316911617905560a0810151600783015560c0810151600883015560e081015160098301556101008101518051906801000000000000000082116113b157600a84015482600a860155808310611336575b50602001600a84018c5260208c208c915b838310611241575050505061012001518051906001600160401b03821161122d576110a9826110a0600b8601546123f5565b600b8601612446565b6020908b601f841160011461118f5793600b84611148957f7532e9985b123ef8bda3bc40b1a4296f34238889a58a41de23df560b8bfb9bc69c9b999561116f9b99956111619992611184575b50508160011b916000199060031b1c1916179101555b6040805189516001600160a01b0390811682526020808c01518216908301529982015190991690890152610100606089015261010088019161233e565b858103608087015260243560040135602480350161235f565b9184830360a086015261233e565b934260c083015260e08201528033940390a380f35b0151905038806110f5565b5090600b84018c5260208c20918c5b601f1985168110611215575093600b6001857f7532e9985b123ef8bda3bc40b1a4296f34238889a58a41de23df560b8bfb9bc69c9b999561116f9b99956111619961114899601f198116106111fc575b505050811b0191015561110b565b015160001960f88460031b161c191690553880806111ee565b9192602060018192868501518155019401920161119e565b634e487b7160e01b8b52604160045260248bfd5b80518051906001600160401b038211611321578f9061126a8361126487546123f5565b87612446565b602091601f84116001146112b4579280602093600196938796926112a9575b5050600019600383901b1c191690841b1785555b0192019201919061106e565b015190503880611289565b919085835260208320925b601f1985168110611309575083602093600196938796938794601f198116106112f0575b505050811b01855561129d565b015160001960f88460031b161c191690553880806112e3565b919260206001819286850151815501940192016112bf565b50634e487b7160e01b8f52604160045260248ffd5b600a85018d5260208d20908382018e5b82840182106113575750505061105d565b9060019161136582546123f5565b80611374575b5050018e611346565b601f8111841461138c575050600081555b8f3861136b565b8282526113a7601f60208420920160051c820185830161242f565b6000835555611385565b634e487b7160e01b8c52604160045260248cfd5b015190503880610fa9565b9250600385018d5260208d20908d935b601f1984168510611424576001945083601f1981161061140b575b505050811b016003830155610fc1565b015160001960f88460031b161c191690553880806113fb565b818101518355602094850194600190930192909101906113e0565b015190503880610f4a565b9250600285018d5260208d20908d935b601f198416851061149e576001945083601f19811610611485575b505050811b016002830155610f62565b015160001960f88460031b161c19169055388080611475565b8181015183556020948501946001909301929091019061145a565b015190503880610eeb565b9250600185018d5260208d20908d935b601f1984168510611518576001945083601f198116106114ff575b505050811b016001830155610f03565b015160001960f88460031b161c191690553880806114ef565b818101518355602094850194600190930192909101906114d4565b81356001600160401b0381116115755760243501366043820112156115755760209161156a839236906044602482013591016121f3565b815201910190610e61565b8c80fd5b8480fd5b8380fd5b8280fd5b503461026e57602036600319011261026e576001600160a01b036115a76122b9565b168082526010602052604082205460055411156115d4578160409160209352601083522054604051908152f35b6024906040519063e64d908d60e01b82526004820152fd5b503461026e578060031936011261026e5764ffffffffff908160075460281c16906001809381945b611625575b60206106a48686612f13565b90919360ff808216918584611639856128c7565b1610156116665750811461165257820193919081611614565b634e487b7160e01b85526011600452602485fd5b955050611619565b503461026e57608036600319011261026e57366023121561026e576040516116958161213d565b608481368211610500576020926004905b8382106116b757846106a484612e0b565b813581529084019084016116a6565b503461026e578060031936011261026e576040517f00000000000000000000000000000000000000000000000000000000000000006001600160a01b03168152602090f35b503461026e57604036600319011261026e576004356001600160401b0360243581811161157d57611740903690600401612254565b919061174a612312565b60055484101561188f57838552602091600a8352600b604087200190841161187b576117808461177a83546123f5565b83612446565b85601f85116001146117f357916117e291857f2cd30b9efd64638f847bef681e87dfbb567e261d02660c8166a92f33729ab33e96959489916117e8575b508560011b906000198760031b1c19161790555b60405193838594855284019161233e565b0390a280f35b9050820135386117bd565b81875283872090601f198616885b8181106118645750916117e29391877f2cd30b9efd64638f847bef681e87dfbb567e261d02660c8166a92f33729ab33e989796941061184a575b5050600185811b0190556117d1565b830135600019600388901b60f8161c19169055388061183b565b919286600181928689013581550194019201611801565b634e487b7160e01b86526041600452602486fd5b60405163a86ecdd560e01b815260048101859052602490fd5b503461026e57608036600319011261026e576118c3366121cb565b6001600160401b039060443582811161157d576118e4903690600401612239565b606435838111611579576118fc903690600401612239565b90825185526011602052604085206020840151865260205260ff9384604087205416611ce65760075464ffffffffff7f00000000000000000000000000000000000000000000000000000000000000009160281c161015611cd4576119678451602086015190612ce7565b15611cc2576001600160a01b03918691907f0000000000000000000000000000000000000000000000000000000000000000841690813b1561157d5783916119c69160405195868094819363125c7dfb60e11b8352336004840161288e565b03925af18015611cb757611c8e575b50506119fa91602091604051808095819463b36543a960e01b8352336004840161288e565b03917f0000000000000000000000000000000000000000000000000000000000000000165afa908115611c83578491611c51575b50611a52604051611a3e816120f1565b838152826020820152426040820152613839565b926007549364ffffffffff8560281c169060019586830164ffffffffff8111611c3b5769ffffffffff00000000009060281b169069ffffffffff0000000000191617600755908587917327B6A3e1Da60c2CDce288dBa8E006B21741d4A4D915b611b3e575b5050505050611ad164ffffffffff60075460281c166128b0565b7fd3c3cd829e4e37d5baaf10abace26b24e0046e20500c999380410f807edfcda0606084519260208601519464ffffffffff604051921682526020820152426040820152a38051835260116020526020604084209101518352602052604082209060ff1982541617905580f35b64ffffffffff611b4e8285612eda565b168952600893846020528060408b205588821615611c3557611bbd94602091611b7f611b79856128b0565b87612eda565b9164ffffffffff60405193611b9385612122565b168d52835260408c2054825282820152604051809681926314d2f97b60e11b835260048301612d58565b0381855af4938415611c2a57889486918b91611beb575b5094938401169290811c647fffffffff1690611ab2565b955050506020843d602011611c22575b81611c08602093836121aa565b81010312610500578488647fffffffff8196519150611bd4565b3d9150611bfb565b6040513d8b823e3d90fd5b50611ab7565b634e487b7160e01b600052601160045260246000fd5b90506020813d602011611c7b575b81611c6c602093836121aa565b81010312610500575138611a2e565b3d9150611c5f565b6040513d86823e3d90fd5b8196929611611ca357604052938160206119d5565b634e487b7160e01b82526041600452602482fd5b6040513d89823e3d90fd5b6040516379fae7af60e01b8152600490fd5b60405163b984588b60e01b8152600490fd5b604051632e13e04560e01b8152600490fd5b503461026e578060031936011261026e576040600c54600d5482519182526020820152f35b503461026e578060031936011261026e57600e546040516001600160a01b039091168152602090f35b503461026e578060031936011261026e576020600554604051908152f35b503461026e57606036600319011261026e57604435801515810361056d57611d9190602435600435612734565b60405190602092838301848452825180915260408401948060408360051b870101940192955b828710611dc45785850386f35b909192938280611de0600193603f198a82030186528851611fd7565b9601920196019592919092611db7565b503461026e57602036600319011261026e5760043590600554821015611e2e57602091815260068252604060018060a01b0391205416604051908152f35b60405163a86ecdd560e01b815260048101839052602490fd5b503461026e578060031936011261026e57600f546040516001600160a01b039091168152602090f35b503461026e578060031936011261026e57602064ffffffffff60075460281c16604051908152f35b503461026e57602036600319011261026e57600435611eb56124b9565b50600554811015611eef57604082611ed792611eeb9452600a602052206125eb565b604051918291602083526020830190611fd7565b0390f35b6024906040519063a86ecdd560e01b82526004820152fd5b503461026e578060031936011261026e576040517f00000000000000000000000000000000000000000000000000000000000000006001600160a01b03168152602090f35b90503461056d578160031936011261056d577f00000000000000000000000000000000000000000000000000000000000000006001600160a01b03168152602090f35b60005b838110611fa25750506000910152565b8181015183820152602001611f92565b90602091611fcb81518092818552858086019101611f8f565b601f01601f1916010190565b91908251815260209061202161200f611ffd848701516101808087870152850190611fb2565b60408701518482036040860152611fb2565b60608601518382036060850152611fb2565b60808086015180516001600160a01b03908116928501929092526020810151821660a0850152604001511660c08301529360a081015160e083015260c081015190610100918284015260e08101519161012092838501528101519383870361014085015284518088528188019180808360051b8b01019701926000905b8382106120c45750505050506120c1949550015190610160818403910152611fb2565b90565b909192939783806120e26001938e601f199082030186528c51611fb2565b9a01920192019093929161209e565b606081019081106001600160401b0382111761210c57604052565b634e487b7160e01b600052604160045260246000fd5b604081019081106001600160401b0382111761210c57604052565b608081019081106001600160401b0382111761210c57604052565b61014081019081106001600160401b0382111761210c57604052565b602081019081106001600160401b0382111761210c57604052565b60a081019081106001600160401b0382111761210c57604052565b90601f801991011681019081106001600160401b0382111761210c57604052565b604090600319011261050057604051906121e482612122565b60043582526024356020830152565b9291926001600160401b03821161210c576040519161221c601f8201601f1916602001846121aa565b829481845281830111610500578281602093846000960137010152565b9080601f83011215610500578160206120c1933591016121f3565b9181601f84011215610500578235916001600160401b038311610500576020838186019501011161050057565b906040519161228f83612122565b826044918211610500576004905b8282106122a957505050565b813581526020918201910161229d565b600435906001600160a01b038216820361050057565b60e435906001600160a01b038216820361050057565b6001600160401b03811161210c5760051b60200190565b6040906003190112610500576004359060243590565b6009546001600160a01b0316330361232657565b60405163118cdaa760e01b8152336004820152602490fd5b908060209392818452848401376000828201840152601f01601f1916010190565b9082818152602080910193818360051b82010194846000925b858410612389575050505050505090565b90919293949596601f198282030184528735601e19843603018112156105005783018681019190356001600160401b038111610500578036038313610500576123d78892839260019561233e565b990194019401929594939190612378565b91908201809211611c3b57565b90600182811c92168015612425575b602083101461240f57565b634e487b7160e01b600052602260045260246000fd5b91607f1691612404565b81811061243a575050565b6000815560010161242f565b9190601f811161245557505050565b612481926000526020600020906020601f840160051c83019310612483575b601f0160051c019061242f565b565b9091508190612474565b91908203918211611c3b57565b604051906124a7826120f1565b60006040838281528260208201520152565b604051906124c682612158565b816000815261012060609182602082015282604082015282808201526124ea61249a565b6080820152600060a0820152600060c0820152600060e0820152826101008201520152565b6000198114611c3b5760010190565b80511561252b5760200190565b634e487b7160e01b600052603260045260246000fd5b805182101561252b5760209160051b010190565b9060009291805491612566836123f5565b9182825260019384811690816000146125c85750600114612588575b50505050565b90919394506000526020928360002092846000945b8386106125b4575050505001019038808080612582565b80548587018301529401938590820161259d565b9294505050602093945060ff191683830152151560051b01019038808080612582565b906040918251906125fb82612158565b8193815483528051600161261c8261261581848801612555565b03836121aa565b60209182860152825161263d816126368160028901612555565b03826121aa565b838601528251612654816126368160038901612555565b60608601528251612664816120f1565b60048501546001600160a01b0390811682526005860154811684830152600686015416848201526080860152600784015460a0860152600884015460c0860152600984015460e0860152600a84018054906126be826122e5565b936126cb865195866121aa565b82855260009182528082208186015b8484106127125750505050505061012092612707859361270e93610100600b980152518096819301612555565b03846121aa565b0152565b858381928a51612726816126368189612555565b8152019201930192906126da565b60001993928482019290918311611c3b5780830292808404821490151715611c3b5761276090836123e8565b93808501948511611c3b578491600554958685101561287457861115612862575b61278b848461248d565b9060018201809211611c3b576127a0826122e5565b926040926127b0845195866121aa565b8085526127bf601f19916122e5565b0160005b81811061284b57505083976000965b868111156127e4575050505050505050565b80841561282f575b9061282a91600052600a602052612824866000209961281361280d8261250f565b9b6125eb565b61281d828b612541565b5288612541565b5061250f565b6127d2565b5061283a818361248d565b90838201918211611c3b57906127ec565b6020906128566124b9565b828289010152016127c3565b9150808501858111611c3b5791612781565b5050505050905060405161288781612174565b6000815290565b6001600160a01b0390911681526040602082018190526120c192910190611fb2565b64ffffffffff9081166000190191908211611c3b57565b80156128e85760ff8111611c3b576001901b9064ffffffffff8211611c3b57565b50600190565b80156128e857600190602081108216604e821083161761294f5781906005925b80821161292657505081600019048111611c3b570290565b909280600019048111611c3b57818416612946575b800292811c9061290e565b8092029161293b565b905060050a90565b9081602091031261050057516001600160a01b03811681036105005790565b9060028210156129835752565b634e487b7160e01b600052602160045260246000fd5b93919594906129a661249a565b5060055492600184016005558751946020916129c7838b0197885190612ce7565b15611cc257606084019360ff80865116956040809b818501906129ec858351166128ee565b996129f6816128ee565b93519a612a028c612122565b8b52898b019384526000198101908111611c3b57600581101561252b57548e51630278d37760e21b81526004810192909252995160248201529151604483015284518416606483015293870151831660848201529251821660a4840152511660c48201528a5160e48201528751610104820152306101248201526101448101949094526001600160a01b0391600090848661016481857f000000000000000000000000000000000000000000000000000000000000000089165af1958615612cdd578296612cbe575b508380808c5193633634487360e01b8552169485600485015216968760248401521695866044830152336064830152612b076084830189612976565b858260a48186897f0000000000000000000000000000000000000000000000000000000000000000165af1918215612cb457908592918492612c95575b508b519463431a717560e01b8652600486015260248501528660448501521690816064840152336084840152612b7d60a4840188612976565b848360c48184887f0000000000000000000000000000000000000000000000000000000000000000165af1928315612c895793612c4d937f60ae5b55fbe14a60c1522de273b7cf937d367c8395a811c3c6cc1eaced4700499997938c8460a09b98612c579a9694612c5a575b508a81526006865220856001600160601b038c1b8254161790558c5194612c0f866120f1565b855283850152168a830152819b51985199519586528501906040908160018060a01b0391828151168552826020820151166020860152015116910152565b6080830190612976565ba3565b612c7b919450863d8811612c82575b612c7381836121aa565b810190612957565b9238612be9565b503d612c69565b508951903d90823e3d90fd5b612cad919250873d8911612c8257612c7381836121aa565b9038612b44565b8b513d85823e3d90fd5b612cd6919650853d8711612c8257612c7381836121aa565b9438612acb565b8a513d84823e3d90fd5b907f30644e72e131a029b85045b68181585d2833e84879b9709143e1f593f0000001808080858196099380098180828187620292fc090894620292f80909600108908082811115612d45575b50600091612d409161248d565b081590565b9050828101809111611c3b576000612d33565b6040810192916000915b60028310612d6f57505050565b600190825181526020809101920192019190612d62565b6020612da691604051809381926314d2f97b60e11b835260048301612d58565b03817327B6A3e1Da60c2CDce288dBa8E006B21741d4A4D5af4908115612dff57600091612dd1575090565b906020823d8211612df7575b81612dea602093836121aa565b8101031261026e57505190565b3d9150612ddd565b6040513d6000823e3d90fd5b60405163248f667760e01b81529060049060008284015b838210612e5c5750505050602081608481730d4f7D4f27Cc0ba3A753E2d0DDC11aAC7Db6FAD15af4908115612dff57600091612dd1575090565b600190835181526020809101930191019091612e22565b604051630926f44b60e31b815290600090600483015b60058310612ec35750505060208160a4817376f34fA874d3D624c169aCdB71C8AA7151d5C86b5af4908115612dff57600091612dd1575090565b600190825181526020809101920192019190612e89565b60ff1663ffffffff0264ffffffffff91828216918203611c3b57821601908111611c3b5790565b60ff60019116019060ff8211611c3b57565b919060ff92838216916020908184116132495764ffffffffff9182841691821561323857612f418891612f01565b16612f78612f4e826122e5565b95604092612f5e845198896121aa565b808852612f6d601f19916122e5565b0136858901376128b0565b906001948580841615600014613203575080831694818611611c3b578695600052600885528260002054612fab8961251e565b52999592995b6000935b612fd0575b50505050505050612fcc929350612541565b5190565b86849a9998979a16888110156131f857858c88166130bf5761302a91613001865191612ffb83612122565b8b612541565b51815261300d8761325b565b828201528551809381926314d2f97b60e11b835260048301612d58565b03817327B6A3e1Da60c2CDce288dBa8E006B21741d4A4D5af49081156130b457600091613087575b509986647fffffffff829d8a9b9c9d613077849c866130708c612f01565b1690612541565b525b821c16950116939a96612fb5565b908682813d83116130ad575b61309d81836121aa565b8101031261026e57505186613052565b503d613093565b84513d6000823e3d90fd5b5082828c6130cc88612f01565b161c1690647fffffffff8d891c1680921160001461312757509986647fffffffff829d85613106849c9d9e9f6131018b612f01565b612eda565b166000526008895286600020546131218d866130708c612f01565b52613079565b61318591508690846131428f61313c906128b0565b89612eda565b166000526008825261316786600020549187519261315f84612122565b83528b612541565b51828201528551809381926314d2f97b60e11b835260048301612d58565b03817327B6A3e1Da60c2CDce288dBa8E006B21741d4A4D5af49081156130b4576000916131cb575b509986647fffffffff829d8a9b9c9d613121849c866130708c612f01565b908682813d83116131f1575b6131e181836121aa565b8101031261026e575051866131ad565b503d6131d7565b508697989950612fba565b947f0ef71f46e11a513c599eed9dd03576c33439bcfb1cee155316f90541e41649ba61322e8961251e565b5299959299612fb1565b9450505050506120c191925061325b565b604051633e104c7760e01b8152600490fd5b60ff16801561381457600181146137ef57600281146137ca57600381146137a55760048114613780576005811461375b5760068114613736576007811461371157600881146136ec57600981146136c757600a81146136a257600b811461367d57600c811461365857600d811461363357600e811461360e57600f81146135e957601081146135c4576011811461359f576012811461357a57601381146135555760148114613530576015811461350b57601681146134e657601781146134c1576018811461349c576019811461347757601a811461345257601b811461342d57601c811461340857601d81146133e357601e81146133be57601f811461339957602014613375576040516310a2ea0560e21b8152600490fd5b7f1d90601a0c76d2f39824f6dc198fb3b48cbd0231516c8f6208e56ea741c341f990565b507f216b9fa3ac3724cf1ec6caf5a66dd85cae3aee727e00d2a0a59f273df3401f1090565b507f2b59c2651b412c029efa38f835ac1b1b5bdaf89dcb2e4bc9219e7d77c65e776a90565b507f14b46e659dc4072fc64a18d44911c4a303b45f1296c3cb7dec77f269bee9b5df90565b507f0845dd838ca63b2f68775aac8513bd692d26f511698206f3c6ce2b4100dd8d8f90565b507f132e4ff3e4ba890f1610efd4d2f69700b825514d557b82663878a56e2acef41c90565b507f24cb019b59431c232413f66b041923214f7a8a7489caa05b66860f1c3c76d3b190565b507f1b6367322bac9f24889900d310e2feaa0021516fac77470aea078e89335d3fcf90565b507f19b336a1e0a933e2a8f97d97322dcee843a2d9a2401bece52a3a25ddd5bb6bc990565b507f1d71ada9e49baeb4a2cf26be37d3bc680554995ef6706105e93978ba71cacf9490565b507f2560496c1138c827f1efb407d0cdb9d6ec9539b0957dfb67de2776e6026d630f90565b507f2ce2c1fb109ad6574570826774ecfca3e04866bb5a3963962b873646db6641f390565b507f1713f3e3dc5e2393bd31ccc0cdd8601bdee3198cf34d566bb60cfab13e5a087390565b507f2c849a73ab21c9e88e1d711f221863e2a94eb58f3eb42dde575301451f3ec5c890565b507f1874217e8e1dbc51c571a2db1103bf47c3e66a59305ca48bbcee6ad1c8cc575190565b507f2b8342160822355808db759147a7d6f61de451bd5bb88f9db2eb406ea68b813890565b507f199cd1f5b757c285023767abbe9bbb318da4e1fd375b5a001b54a0f3901ea7d390565b507f128fb9ad5b2d8e694bec0888ff95609c15b2a96ae80a34946c953dc503e46fb690565b507f2ec047dd616221873c234f36461080c3e760644bb519ebdb49eb9645215e0edc90565b507f2582b5cdefe032d75373f0ede9171406137e93e7d44405a0b0a409c1c739138090565b507f1f336d6d45d293180c75964e99a7599d44cac2ad447c202c3e1973b0322cf99090565b507f05e0136534f74776d69646bd0bd94519e63af45734405f479382d8400514c1a690565b507f10f7b76489e9c36644736c33c600d1bcedd465fd0aff3027e67b02e13875272d90565b507f1e73f08f6e5e4bb9c2096cc4587526ebfd033c222f4a27e97119c867c36a0d3a90565b507f1ea63a974336db6c0423e719d3f0e11494266237dda3a40de3cb76104436635990565b507f0690bfb582c7502ff6d15d519740ecd73d652b7a14dc82bfd250613ee8e0407690565b507f30553f8216db90854953edd47602897f897104d5b0d65a5ce000981c51da32e090565b507f11dc55d21b17daf8e60253c2a43d519039ba968733cf7c9d5df6155939e1a6d890565b507f08e4b5d410c8de929132c214ea600b5f252fa14aabb97ea67cda5bb4e0ebeec890565b507f04265868d2e705f48d3ae49f7749e67a587dafdb569c1d7334675496046eaad690565b507f2a06fb0b739b402c34dc752d8417b9cd67b7f7cabe4b06b5d995053791fcede490565b507f06928e817d2804a3713efd102bae900c9ab3e8e0b0c6c20f8613bd3b0423a89190565b507f0ef71f46e11a513c599eed9dd03576c33439bcfb1cee155316f90541e41649ba90565b6120c190604080519161384b8361213d565b60803684378051518352602081510151602084015260208101518284015201516060820152612e0b565b60206120c192604061391d81519461388c8661218f565b60a03687378051518652848151015185870152828151015183870152606081510151606087015260808151015160808701526101208351916138cd8361218f565b60a036843760a081510151835260c0815101518784015260e0815101518584015261010081510151606084015251015160808201526139168351966139118861213d565b612e73565b8652612e73565b8385015281519084015201516060820152612e0b56fea2646970667358221220679d274dc4125370066a5b96630e677b10ea2663eb24740704a2815e47124c4164736f6c63430008140033",
  "deployedBytecode": "0x608080604052600436101561001357600080fd5b600090813560e01c908163055575eb14611f4c57508063079410db14611f075780631096c30e14611e98578063122db15314611e7057806313fb893214611e475780631a8cbcaa14611df05780631b6ef3c514611d645780632b78657114611d465780632b7ac3f314611d1d57806331e766a514611cf85780633364120a146118a85780633364c4c81461170b578063343393b5146116c65780633dfb88b21461166e578063423f3e19146115ec57806346e47f9a146115855780634d5da86b14610c6357806358bfc37914610b405780635bb9399514610b0f57806362a361bb14610ae157806362b31f1e14610a9c57806364e0ece11461097b578063652c76e41461093d578063683f3dc3146109215780636b4575e214610820578063715018a6146107c25780637d0a81c8146107805780638a2a3dfb146106e45780638da5cb5b146106bb5780639cfced971461065b578063aab4a67014610616578063ac2f0074146105e3578063ac98e5df146105a1578063b686872014610571578063b87802c814610543578063bea140b314610442578063c8cf9ab214610409578063d7a71b9a146103d7578063df82635a1461039c578063edbfe83f146102715763f2fde38b146101e457600080fd5b3461026e57602036600319011261026e576101fd6122b9565b610205612312565b6001600160a01b0390811690811561025557600954826001600160601b0360a01b821617600955167f8be0079c531659141344cd1fd0a4f28419497f9722a3daafe3b4186f6b6457e0600080a380f35b604051631e4fbdf760e01b815260048101849052602490fd5b80fd5b503461026e57604036600319011261026e57366023121561026e5761029536612281565b6040516102a181612174565b6040516102ad81612158565b610140918236833752604051906102c382612122565b8382528360208093015281604051936102db85612158565b8236863780518552015182840152604051906102f682612122565b7f171e826ad4a870fd925e0bf0e87884e70e080879c2205ef10114f28a3b6f6dd78252828201917f2bd407d897fbbca9f88adfd2d15252e69de8c1564eb4d3d27162e259172f1a1d83526040519461034d86612174565b85526103598186613875565b6040519551969094865b600a8310610387575050506101a09550519084015251610160830152610180820152f35b81806001928b51815201990192019197610363565b503461026e578060031936011261026e5760206040517f00000000000000000000000000000000000000000000000000000000000000008152f35b503461026e5760ff60406020926103ed366122fc565b9082526011855282822090825284522054166040519015158152f35b503461026e57602036600319011261026e576020906040906001600160a01b036104316122b9565b168152601083522054604051908152f35b503461026e57606036600319011261026e57366023121561026e576040519061046a826120f1565b606482368211610500576004905b8282106105335750506040516304b98e1d60e31b81529283908390600483015b60038310610519575050506020918173__$fa059fb1da6d850ca47ea49359bfe89f78$__5af490811561050d57906104d6575b602090604051908152f35b506020813d8211610505575b816104ef602093836121aa565b8101031261050057602090516104cb565b600080fd5b3d91506104e2565b604051903d90823e3d90fd5b815181528693506001929092019160209182019101610498565b8135815260209182019101610478565b503461026e57602036600319011261026e57600435600581101561056d5760209054604051908152f35b5080fd5b503461026e578060031936011261026e57604060075481519064ffffffffff90818116835260281c166020820152f35b503461026e578060031936011261026e576080600b5460ff604051918181168352818160081c166020840152818160101c16604084015260181c166060820152f35b503461026e57602036600319011261026e57602090600435815260068252604060018060a01b0391205416604051908152f35b503461026e578060031936011261026e576040517f00000000000000000000000000000000000000000000000000000000000000006001600160a01b03168152602090f35b503461026e5760a036600319011261026e57366023121561026e576040516106828161218f565b60a481368211610500576020926004905b8382106106ac57846106a484612e73565b604051908152f35b81358152908401908401610693565b503461026e578060031936011261026e576009546040516001600160a01b039091168152602090f35b503461026e573660031901610180811261056d576101401361026e576040519061070d82612174565b366023121561026e57506040519061072482612158565b8161014492368411610500576004905b8482106107705750508152604036610143190112610500576020916106a4916040519161076083612122565b3582526101643584830152613875565b8135815260209182019101610734565b503461026e57608036600319011261026e5760206106a46040516107a3816120f1565b6107ac366121cb565b8152604435838201526064356040820152613839565b503461026e578060031936011261026e576107db612312565b600980546001600160a01b031981169091556000906001600160a01b03167f8be0079c531659141344cd1fd0a4f28419497f9722a3daafe3b4186f6b6457e08280a380f35b503461026e5761014036600319011261026e5760803660231901126105005760405161084b8161213d565b60243560ff8116810361050057815260443560ff8116810361050057602082015260643560ff8116810361050057604082015260843560ff8116810361050057606082015260403660a3190112610500576040516108a881612122565b60a435815260c43560208201526108bd6122cf565b61010435929091906001600160a01b0384168403610500576101243594600286101561026e5760606108f58787878787600435612999565b6040805182516001600160a01b0390811682526020808501518216908301529282015190921690820152f35b503461026e578060031936011261026e576020604051600a8152f35b503461026e578060031936011261026e57602060405160ff7f0000000000000000000000000000000000000000000000000000000000000000168152f35b503461026e573660031901610100811261056d57608013610500576040516109a28161213d565b60043560ff811681036105005781526024359060ff8216820361050057602081019182526044359060ff8216820361050057604081019182526064359260ff841684036105005760608201938452604036608319011261050057604051610a0881612122565b6084358152602081019160a435835260c4359560018060a01b03958688168098036105005760ff610a376122cf565b96610a40612312565b511663ff00000062ff000061ff00600b54965160081b16935160101b16935160181b169363ffffffff191617171717600b5551600c5551600d556001600160601b0360a01b9283600e541617600e551690600f541617600f5580f35b503461026e578060031936011261026e576040517f00000000000000000000000000000000000000000000000000000000000000006001600160a01b03168152602090f35b503461026e57604036600319011261026e57366023121561026e5760206106a4610b0a36612281565b612d86565b503461026e5760206106a4610b23366122fc565b60405191610b3083612122565b6040368437825283820152612d86565b503461026e576020908160031936011261026e576004356001600160401b03811161056d573660238201121561056d578060040135610b7e816122e5565b91610b8c60405193846121aa565b8183528483016024819360051b83010191368311610c5f5791869394916024879401905b828210610c4d57505050604051838101809251909590845b818110610c3457505050610bea81610bfb94959603601f1981018352826121aa565b604051928392839251928391611f8f565b8101039060025afa1561050d577f30644e72e131a029b85045b68181585d2833e84879b9709143e1f593f0000001905106604051908152f35b8251885296860196899689965090920191600101610bc8565b81358152879450908501908501610bb0565b8580fd5b503461026e5760a036600319011261026e576004356001600160401b03811161056d57610c94903690600401612254565b906001600160401b036024351161158157366023602435011215611581576001600160401b0360243560040135116115815736602480356004013560051b8135010111611581576044356001600160401b03811161157d57610cfa903690600401612254565b91906002608435101561157957610d0f612312565b600554600e54600f54604051929592610d889290916001600160a01b039081169116610d3a8361213d565b60ff600b548181168552818160081c166020860152818160101c16604086015260181c166060840152604051610d6f81612122565b600c548152600d54602082015260843593606435612999565b9260018060a01b038451168752601060205284604088205560405195602080880152610dd487610dc66040820160243560040135602480350161235f565b03601f1981018952886121aa565b610de0606435426123e8565b9660405190610dee82612158565b878252610dfc3684866121f3565b60208301526040820152610e113685876121f3565b60608201528560808201524260a08201528760c08201526024356004013560e0820152610e43602435600401356122e5565b610e5060405191826121aa565b602480356004810135835201602082015b602480356004013560051b813501018210611533575050610100820152604051610e8a81612174565b898152610120820152868952600a60205260408920908051825560208101518051906001600160401b0382116113b1578190610ed682610ecd60018801546123f5565b60018801612446565b602090601f83116001146114c4578d926114b9575b50508160011b916000199060031b1c19161760018301555b60408101518051906001600160401b0382116113b1578190610f3582610f2c60028801546123f5565b60028801612446565b602090601f831160011461144a578d9261143f575b50508160011b916000199060031b1c19161760028301555b60608101518051906001600160401b0382116113b1578190610f9482610f8b60038801546123f5565b60038801612446565b602090601f83116001146113d0578d926113c5575b50508160011b916000199060031b1c19161760038301555b608081015180516004840180546001600160a01b03199081166001600160a01b039384161790915560208301516005860180548316918416919091179055604090920151600685018054909316911617905560a0810151600783015560c0810151600883015560e081015160098301556101008101518051906801000000000000000082116113b157600a84015482600a860155808310611336575b50602001600a84018c5260208c208c915b838310611241575050505061012001518051906001600160401b03821161122d576110a9826110a0600b8601546123f5565b600b8601612446565b6020908b601f841160011461118f5793600b84611148957f7532e9985b123ef8bda3bc40b1a4296f34238889a58a41de23df560b8bfb9bc69c9b999561116f9b99956111619992611184575b50508160011b916000199060031b1c1916179101555b6040805189516001600160a01b0390811682526020808c01518216908301529982015190991690890152610100606089015261010088019161233e565b858103608087015260243560040135602480350161235f565b9184830360a086015261233e565b934260c083015260e08201528033940390a380f35b0151905038806110f5565b5090600b84018c5260208c20918c5b601f1985168110611215575093600b6001857f7532e9985b123ef8bda3bc40b1a4296f34238889a58a41de23df560b8bfb9bc69c9b999561116f9b99956111619961114899601f198116106111fc575b505050811b0191015561110b565b015160001960f88460031b161c191690553880806111ee565b9192602060018192868501518155019401920161119e565b634e487b7160e01b8b52604160045260248bfd5b80518051906001600160401b038211611321578f9061126a8361126487546123f5565b87612446565b602091601f84116001146112b4579280602093600196938796926112a9575b5050600019600383901b1c191690841b1785555b0192019201919061106e565b015190503880611289565b919085835260208320925b601f1985168110611309575083602093600196938796938794601f198116106112f0575b505050811b01855561129d565b015160001960f88460031b161c191690553880806112e3565b919260206001819286850151815501940192016112bf565b50634e487b7160e01b8f52604160045260248ffd5b600a85018d5260208d20908382018e5b82840182106113575750505061105d565b9060019161136582546123f5565b80611374575b5050018e611346565b601f8111841461138c575050600081555b8f3861136b565b8282526113a7601f60208420920160051c820185830161242f565b6000835555611385565b634e487b7160e01b8c52604160045260248cfd5b015190503880610fa9565b9250600385018d5260208d20908d935b601f1984168510611424576001945083601f1981161061140b575b505050811b016003830155610fc1565b015160001960f88460031b161c191690553880806113fb565b818101518355602094850194600190930192909101906113e0565b015190503880610f4a565b9250600285018d5260208d20908d935b601f198416851061149e576001945083601f19811610611485575b505050811b016002830155610f62565b015160001960f88460031b161c19169055388080611475565b8181015183556020948501946001909301929091019061145a565b015190503880610eeb565b9250600185018d5260208d20908d935b601f1984168510611518576001945083601f198116106114ff575b505050811b016001830155610f03565b015160001960f88460031b161c191690553880806114ef565b818101518355602094850194600190930192909101906114d4565b81356001600160401b0381116115755760243501366043820112156115755760209161156a839236906044602482013591016121f3565b815201910190610e61565b8c80fd5b8480fd5b8380fd5b8280fd5b503461026e57602036600319011261026e576001600160a01b036115a76122b9565b168082526010602052604082205460055411156115d4578160409160209352601083522054604051908152f35b6024906040519063e64d908d60e01b82526004820152fd5b503461026e578060031936011261026e5764ffffffffff908160075460281c16906001809381945b611625575b60206106a48686612f13565b90919360ff808216918584611639856128c7565b1610156116665750811461165257820193919081611614565b634e487b7160e01b85526011600452602485fd5b955050611619565b503461026e57608036600319011261026e57366023121561026e576040516116958161213d565b608481368211610500576020926004905b8382106116b757846106a484612e0b565b813581529084019084016116a6565b503461026e578060031936011261026e576040517f00000000000000000000000000000000000000000000000000000000000000006001600160a01b03168152602090f35b503461026e57604036600319011261026e576004356001600160401b0360243581811161157d57611740903690600401612254565b919061174a612312565b60055484101561188f57838552602091600a8352600b604087200190841161187b576117808461177a83546123f5565b83612446565b85601f85116001146117f357916117e291857f2cd30b9efd64638f847bef681e87dfbb567e261d02660c8166a92f33729ab33e96959489916117e8575b508560011b906000198760031b1c19161790555b60405193838594855284019161233e565b0390a280f35b9050820135386117bd565b81875283872090601f198616885b8181106118645750916117e29391877f2cd30b9efd64638f847bef681e87dfbb567e261d02660c8166a92f33729ab33e989796941061184a575b5050600185811b0190556117d1565b830135600019600388901b60f8161c19169055388061183b565b919286600181928689013581550194019201611801565b634e487b7160e01b86526041600452602486fd5b60405163a86ecdd560e01b815260048101859052602490fd5b503461026e57608036600319011261026e576118c3366121cb565b6001600160401b039060443582811161157d576118e4903690600401612239565b606435838111611579576118fc903690600401612239565b90825185526011602052604085206020840151865260205260ff9384604087205416611ce65760075464ffffffffff7f00000000000000000000000000000000000000000000000000000000000000009160281c161015611cd4576119678451602086015190612ce7565b15611cc2576001600160a01b03918691907f0000000000000000000000000000000000000000000000000000000000000000841690813b1561157d5783916119c69160405195868094819363125c7dfb60e11b8352336004840161288e565b03925af18015611cb757611c8e575b50506119fa91602091604051808095819463b36543a960e01b8352336004840161288e565b03917f0000000000000000000000000000000000000000000000000000000000000000165afa908115611c83578491611c51575b50611a52604051611a3e816120f1565b838152826020820152426040820152613839565b926007549364ffffffffff8560281c169060019586830164ffffffffff8111611c3b5769ffffffffff00000000009060281b169069ffffffffff00000000001916176007559085879173__$1540826e134b1b69b7091c82576ee3aadd$__915b611b3e575b5050505050611ad164ffffffffff60075460281c166128b0565b7fd3c3cd829e4e37d5baaf10abace26b24e0046e20500c999380410f807edfcda0606084519260208601519464ffffffffff604051921682526020820152426040820152a38051835260116020526020604084209101518352602052604082209060ff1982541617905580f35b64ffffffffff611b4e8285612eda565b168952600893846020528060408b205588821615611c3557611bbd94602091611b7f611b79856128b0565b87612eda565b9164ffffffffff60405193611b9385612122565b168d52835260408c2054825282820152604051809681926314d2f97b60e11b835260048301612d58565b0381855af4938415611c2a57889486918b91611beb575b5094938401169290811c647fffffffff1690611ab2565b955050506020843d602011611c22575b81611c08602093836121aa565b81010312610500578488647fffffffff8196519150611bd4565b3d9150611bfb565b6040513d8b823e3d90fd5b50611ab7565b634e487b7160e01b600052601160045260246000fd5b90506020813d602011611c7b575b81611c6c602093836121aa565b81010312610500575138611a2e565b3d9150611c5f565b6040513d86823e3d90fd5b8196929611611ca357604052938160206119d5565b634e487b7160e01b82526041600452602482fd5b6040513d89823e3d90fd5b6040516379fae7af60e01b8152600490fd5b60405163b984588b60e01b8152600490fd5b604051632e13e04560e01b8152600490fd5b503461026e578060031936011261026e576040600c54600d5482519182526020820152f35b503461026e578060031936011261026e57600e546040516001600160a01b039091168152602090f35b503461026e578060031936011261026e576020600554604051908152f35b503461026e57606036600319011261026e57604435801515810361056d57611d9190602435600435612734565b60405190602092838301848452825180915260408401948060408360051b870101940192955b828710611dc45785850386f35b909192938280611de0600193603f198a82030186528851611fd7565b9601920196019592919092611db7565b503461026e57602036600319011261026e5760043590600554821015611e2e57602091815260068252604060018060a01b0391205416604051908152f35b60405163a86ecdd560e01b815260048101839052602490fd5b503461026e578060031936011261026e57600f546040516001600160a01b039091168152602090f35b503461026e578060031936011261026e57602064ffffffffff60075460281c16604051908152f35b503461026e57602036600319011261026e57600435611eb56124b9565b50600554811015611eef57604082611ed792611eeb9452600a602052206125eb565b604051918291602083526020830190611fd7565b0390f35b6024906040519063a86ecdd560e01b82526004820152fd5b503461026e578060031936011261026e576040517f00000000000000000000000000000000000000000000000000000000000000006001600160a01b03168152602090f35b90503461056d578160031936011261056d577f00000000000000000000000000000000000000000000000000000000000000006001600160a01b03168152602090f35b60005b838110611fa25750506000910152565b8181015183820152602001611f92565b90602091611fcb81518092818552858086019101611f8f565b601f01601f1916010190565b91908251815260209061202161200f611ffd848701516101808087870152850190611fb2565b60408701518482036040860152611fb2565b60608601518382036060850152611fb2565b60808086015180516001600160a01b03908116928501929092526020810151821660a0850152604001511660c08301529360a081015160e083015260c081015190610100918284015260e08101519161012092838501528101519383870361014085015284518088528188019180808360051b8b01019701926000905b8382106120c45750505050506120c1949550015190610160818403910152611fb2565b90565b909192939783806120e26001938e601f199082030186528c51611fb2565b9a01920192019093929161209e565b606081019081106001600160401b0382111761210c57604052565b634e487b7160e01b600052604160045260246000fd5b604081019081106001600160401b0382111761210c57604052565b608081019081106001600160401b0382111761210c57604052565b61014081019081106001600160401b0382111761210c57604052565b602081019081106001600160401b0382111761210c57604052565b60a081019081106001600160401b0382111761210c57604052565b90601f801991011681019081106001600160401b0382111761210c57604052565b604090600319011261050057604051906121e482612122565b60043582526024356020830152565b9291926001600160401b03821161210c576040519161221c601f8201601f1916602001846121aa565b829481845281830111610500578281602093846000960137010152565b9080601f83011215610500578160206120c1933591016121f3565b9181601f84011215610500578235916001600160401b038311610500576020838186019501011161050057565b906040519161228f83612122565b826044918211610500576004905b8282106122a957505050565b813581526020918201910161229d565b600435906001600160a01b038216820361050057565b60e435906001600160a01b038216820361050057565b6001600160401b03811161210c5760051b60200190565b6040906003190112610500576004359060243590565b6009546001600160a01b0316330361232657565b60405163118cdaa760e01b8152336004820152602490fd5b908060209392818452848401376000828201840152601f01601f1916010190565b9082818152602080910193818360051b82010194846000925b858410612389575050505050505090565b90919293949596601f198282030184528735601e19843603018112156105005783018681019190356001600160401b038111610500578036038313610500576123d78892839260019561233e565b990194019401929594939190612378565b91908201809211611c3b57565b90600182811c92168015612425575b602083101461240f57565b634e487b7160e01b600052602260045260246000fd5b91607f1691612404565b81811061243a575050565b6000815560010161242f565b9190601f811161245557505050565b612481926000526020600020906020601f840160051c83019310612483575b601f0160051c019061242f565b565b9091508190612474565b91908203918211611c3b57565b604051906124a7826120f1565b60006040838281528260208201520152565b604051906124c682612158565b816000815261012060609182602082015282604082015282808201526124ea61249a565b6080820152600060a0820152600060c0820152600060e0820152826101008201520152565b6000198114611c3b5760010190565b80511561252b5760200190565b634e487b7160e01b600052603260045260246000fd5b805182101561252b5760209160051b010190565b9060009291805491612566836123f5565b9182825260019384811690816000146125c85750600114612588575b50505050565b90919394506000526020928360002092846000945b8386106125b4575050505001019038808080612582565b80548587018301529401938590820161259d565b9294505050602093945060ff191683830152151560051b01019038808080612582565b906040918251906125fb82612158565b8193815483528051600161261c8261261581848801612555565b03836121aa565b60209182860152825161263d816126368160028901612555565b03826121aa565b838601528251612654816126368160038901612555565b60608601528251612664816120f1565b60048501546001600160a01b0390811682526005860154811684830152600686015416848201526080860152600784015460a0860152600884015460c0860152600984015460e0860152600a84018054906126be826122e5565b936126cb865195866121aa565b82855260009182528082208186015b8484106127125750505050505061012092612707859361270e93610100600b980152518096819301612555565b03846121aa565b0152565b858381928a51612726816126368189612555565b8152019201930192906126da565b60001993928482019290918311611c3b5780830292808404821490151715611c3b5761276090836123e8565b93808501948511611c3b578491600554958685101561287457861115612862575b61278b848461248d565b9060018201809211611c3b576127a0826122e5565b926040926127b0845195866121aa565b8085526127bf601f19916122e5565b0160005b81811061284b57505083976000965b868111156127e4575050505050505050565b80841561282f575b9061282a91600052600a602052612824866000209961281361280d8261250f565b9b6125eb565b61281d828b612541565b5288612541565b5061250f565b6127d2565b5061283a818361248d565b90838201918211611c3b57906127ec565b6020906128566124b9565b828289010152016127c3565b9150808501858111611c3b5791612781565b5050505050905060405161288781612174565b6000815290565b6001600160a01b0390911681526040602082018190526120c192910190611fb2565b64ffffffffff9081166000190191908211611c3b57565b80156128e85760ff8111611c3b576001901b9064ffffffffff8211611c3b57565b50600190565b80156128e857600190602081108216604e821083161761294f5781906005925b80821161292657505081600019048111611c3b570290565b909280600019048111611c3b57818416612946575b800292811c9061290e565b8092029161293b565b905060050a90565b9081602091031261050057516001600160a01b03811681036105005790565b9060028210156129835752565b634e487b7160e01b600052602160045260246000fd5b93919594906129a661249a565b5060055492600184016005558751946020916129c7838b0197885190612ce7565b15611cc257606084019360ff80865116956040809b818501906129ec858351166128ee565b996129f6816128ee565b93519a612a028c612122565b8b52898b019384526000198101908111611c3b57600581101561252b57548e51630278d37760e21b81526004810192909252995160248201529151604483015284518416606483015293870151831660848201529251821660a4840152511660c48201528a5160e48201528751610104820152306101248201526101448101949094526001600160a01b0391600090848661016481857f000000000000000000000000000000000000000000000000000000000000000089165af1958615612cdd578296612cbe575b508380808c5193633634487360e01b8552169485600485015216968760248401521695866044830152336064830152612b076084830189612976565b858260a48186897f0000000000000000000000000000000000000000000000000000000000000000165af1918215612cb457908592918492612c95575b508b519463431a717560e01b8652600486015260248501528660448501521690816064840152336084840152612b7d60a4840188612976565b848360c48184887f0000000000000000000000000000000000000000000000000000000000000000165af1928315612c895793612c4d937f60ae5b55fbe14a60c1522de273b7cf937d367c8395a811c3c6cc1eaced4700499997938c8460a09b98612c579a9694612c5a575b508a81526006865220856001600160601b038c1b8254161790558c5194612c0f866120f1565b855283850152168a830152819b51985199519586528501906040908160018060a01b0391828151168552826020820151166020860152015116910152565b6080830190612976565ba3565b612c7b919450863d8811612c82575b612c7381836121aa565b810190612957565b9238612be9565b503d612c69565b508951903d90823e3d90fd5b612cad919250873d8911612c8257612c7381836121aa565b9038612b44565b8b513d85823e3d90fd5b612cd6919650853d8711612c8257612c7381836121aa565b9438612acb565b8a513d84823e3d90fd5b907f30644e72e131a029b85045b68181585d2833e84879b9709143e1f593f0000001808080858196099380098180828187620292fc090894620292f80909600108908082811115612d45575b50600091612d409161248d565b081590565b9050828101809111611c3b576000612d33565b6040810192916000915b60028310612d6f57505050565b600190825181526020809101920192019190612d62565b6020612da691604051809381926314d2f97b60e11b835260048301612d58565b038173__$1540826e134b1b69b7091c82576ee3aadd$__5af4908115612dff57600091612dd1575090565b906020823d8211612df7575b81612dea602093836121aa565b8101031261026e57505190565b3d9150612ddd565b6040513d6000823e3d90fd5b60405163248f667760e01b81529060049060008284015b838210612e5c575050505060208160848173__$e61c65d9562aef5fa6ab22c0f787cf1e30$__5af4908115612dff57600091612dd1575090565b600190835181526020809101930191019091612e22565b604051630926f44b60e31b815290600090600483015b60058310612ec35750505060208160a48173__$46fbdf6658faf65265971bdad66851b86c$__5af4908115612dff57600091612dd1575090565b600190825181526020809101920192019190612e89565b60ff1663ffffffff0264ffffffffff91828216918203611c3b57821601908111611c3b5790565b60ff60019116019060ff8211611c3b57565b919060ff92838216916020908184116132495764ffffffffff9182841691821561323857612f418891612f01565b16612f78612f4e826122e5565b95604092612f5e845198896121aa565b808852612f6d601f19916122e5565b0136858901376128b0565b906001948580841615600014613203575080831694818611611c3b578695600052600885528260002054612fab8961251e565b52999592995b6000935b612fd0575b50505050505050612fcc929350612541565b5190565b86849a9998979a16888110156131f857858c88166130bf5761302a91613001865191612ffb83612122565b8b612541565b51815261300d8761325b565b828201528551809381926314d2f97b60e11b835260048301612d58565b038173__$1540826e134b1b69b7091c82576ee3aadd$__5af49081156130b457600091613087575b509986647fffffffff829d8a9b9c9d613077849c866130708c612f01565b1690612541565b525b821c16950116939a96612fb5565b908682813d83116130ad575b61309d81836121aa565b8101031261026e57505186613052565b503d613093565b84513d6000823e3d90fd5b5082828c6130cc88612f01565b161c1690647fffffffff8d891c1680921160001461312757509986647fffffffff829d85613106849c9d9e9f6131018b612f01565b612eda565b166000526008895286600020546131218d866130708c612f01565b52613079565b61318591508690846131428f61313c906128b0565b89612eda565b166000526008825261316786600020549187519261315f84612122565b83528b612541565b51828201528551809381926314d2f97b60e11b835260048301612d58565b038173__$1540826e134b1b69b7091c82576ee3aadd$__5af49081156130b4576000916131cb575b509986647fffffffff829d8a9b9c9d613121849c866130708c612f01565b908682813d83116131f1575b6131e181836121aa565b8101031261026e575051866131ad565b503d6131d7565b508697989950612fba565b947f0ef71f46e11a513c599eed9dd03576c33439bcfb1cee155316f90541e41649ba61322e8961251e565b5299959299612fb1565b9450505050506120c191925061325b565b604051633e104c7760e01b8152600490fd5b60ff16801561381457600181146137ef57600281146137ca57600381146137a55760048114613780576005811461375b5760068114613736576007811461371157600881146136ec57600981146136c757600a81146136a257600b811461367d57600c811461365857600d811461363357600e811461360e57600f81146135e957601081146135c4576011811461359f576012811461357a57601381146135555760148114613530576015811461350b57601681146134e657601781146134c1576018811461349c576019811461347757601a811461345257601b811461342d57601c811461340857601d81146133e357601e81146133be57601f811461339957602014613375576040516310a2ea0560e21b8152600490fd5b7f1d90601a0c76d2f39824f6dc198fb3b48cbd0231516c8f6208e56ea741c341f990565b507f216b9fa3ac3724cf1ec6caf5a66dd85cae3aee727e00d2a0a59f273df3401f1090565b507f2b59c2651b412c029efa38f835ac1b1b5bdaf89dcb2e4bc9219e7d77c65e776a90565b507f14b46e659dc4072fc64a18d44911c4a303b45f1296c3cb7dec77f269bee9b5df90565b507f0845dd838ca63b2f68775aac8513bd692d26f511698206f3c6ce2b4100dd8d8f90565b507f132e4ff3e4ba890f1610efd4d2f69700b825514d557b82663878a56e2acef41c90565b507f24cb019b59431c232413f66b041923214f7a8a7489caa05b66860f1c3c76d3b190565b507f1b6367322bac9f24889900d310e2feaa0021516fac77470aea078e89335d3fcf90565b507f19b336a1e0a933e2a8f97d97322dcee843a2d9a2401bece52a3a25ddd5bb6bc990565b507f1d71ada9e49baeb4a2cf26be37d3bc680554995ef6706105e93978ba71cacf9490565b507f2560496c1138c827f1efb407d0cdb9d6ec9539b0957dfb67de2776e6026d630f90565b507f2ce2c1fb109ad6574570826774ecfca3e04866bb5a3963962b873646db6641f390565b507f1713f3e3dc5e2393bd31ccc0cdd8601bdee3198cf34d566bb60cfab13e5a087390565b507f2c849a73ab21c9e88e1d711f221863e2a94eb58f3eb42dde575301451f3ec5c890565b507f1874217e8e1dbc51c571a2db1103bf47c3e66a59305ca48bbcee6ad1c8cc575190565b507f2b8342160822355808db759147a7d6f61de451bd5bb88f9db2eb406ea68b813890565b507f199cd1f5b757c285023767abbe9bbb318da4e1fd375b5a001b54a0f3901ea7d390565b507f128fb9ad5b2d8e694bec0888ff95609c15b2a96ae80a34946c953dc503e46fb690565b507f2ec047dd616221873c234f36461080c3e760644bb519ebdb49eb9645215e0edc90565b507f2582b5cdefe032d75373f0ede9171406137e93e7d44405a0b0a409c1c739138090565b507f1f336d6d45d293180c75964e99a7599d44cac2ad447c202c3e1973b0322cf99090565b507f05e0136534f74776d69646bd0bd94519e63af45734405f479382d8400514c1a690565b507f10f7b76489e9c36644736c33c600d1bcedd465fd0aff3027e67b02e13875272d90565b507f1e73f08f6e5e4bb9c2096cc4587526ebfd033c222f4a27e97119c867c36a0d3a90565b507f1ea63a974336db6c0423e719d3f0e11494266237dda3a40de3cb76104436635990565b507f0690bfb582c7502ff6d15d519740ecd73d652b7a14dc82bfd250613ee8e0407690565b507f30553f8216db90854953edd47602897f897104d5b0d65a5ce000981c51da32e090565b507f11dc55d21b17daf8e60253c2a43d519039ba968733cf7c9d5df6155939e1a6d890565b507f08e4b5d410c8de929132c214ea600b5f252fa14aabb97ea67cda5bb4e0ebeec890565b507f04265868d2e705f48d3ae49f7749e67a587dafdb569c1d7334675496046eaad690565b507f2a06fb0b739b402c34dc752d8417b9cd67b7f7cabe4b06b5d995053791fcede490565b507f06928e817d2804a3713efd102bae900c9ab3e8e0b0c6c20f8613bd3b0423a89190565b507f0ef71f46e11a513c599eed9dd03576c33439bcfb1cee155316f90541e41649ba90565b6120c190604080519161384b8361213d565b60803684378051518352602081510151602084015260208101518284015201516060820152612e0b565b60206120c192604061391d81519461388c8661218f565b60a03687378051518652848151015185870152828151015183870152606081510151606087015260808151015160808701526101208351916138cd8361218f565b60a036843760a081510151835260c0815101518784015260e0815101518584015261010081510151606084015251015160808201526139168351966139118861213d565b612e73565b8652612e73565b8385015281519084015201516060820152612e0b56fea2646970667358221220679d274dc4125370066a5b96630e677b10ea2663eb24740704a2815e47124c4164736f6c63430008140033",
  "libraries": {
    "PoseidonT3": "0x27B6A3e1Da60c2CDce288dBa8E006B21741d4A4D",
    "PoseidonT4": "0xdFf8A2A1c8054e93c4b015781013a1743FEAb04F",
    "PoseidonT5": "0x0d4f7D4f27Cc0ba3A753E2d0DDC11aAC7Db6FAD1",
    "PoseidonT6": "0x76f34fA874d3D624c169aCdB71C8AA7151d5C86b"
  },
  "devdoc": {
    "errors": {
      "OwnableInvalidOwner(address)": [
        {
          "details": "The owner is not a valid owner account. (eg. `address(0)`)"
        }
      ],
      "OwnableUnauthorizedAccount(address)": [
        {
          "details": "The caller account is not authorized to perform an operation."
        }
      ]
    },
    "kind": "dev",
    "methods": {
      "deployPoll(uint256,(uint8,uint8,uint8,uint8),(uint256,uint256),address,address,uint8)": {
        "params": {
          "_coordinatorPubKey": "The coordinator's public key",
          "_duration": "How long should the Poll last for",
          "_mode": "Voting mode",
          "_treeDepths": "The depth of the Merkle trees",
          "_verifier": "The Verifier Contract",
          "_vkRegistry": "The VkRegistry Contract"
        },
        "returns": {
          "pollAddr": "a new Poll contract address"
        }
      },
      "getPoll(uint256)": {
        "params": {
          "_pollId": "The identifier of the Poll to retrieve"
        },
        "returns": {
          "poll": "The Poll contract object"
        }
      },
      "getStateTreeRoot()": {
        "returns": {
          "root": "The Merkle root"
        }
      },
      "hash2(uint256[2])": {
        "params": {
          "array": "An array of two uint256 elements."
        },
        "returns": {
          "result": "The Poseidon hash of the two elements."
        }
      },
      "hash3(uint256[3])": {
        "params": {
          "array": "An array of three uint256 elements."
        },
        "returns": {
          "result": "The Poseidon hash of the three elements."
        }
      },
      "hash4(uint256[4])": {
        "params": {
          "array": "An array of four uint256 elements."
        },
        "returns": {
          "result": "The Poseidon hash of the four elements."
        }
      },
      "hash5(uint256[5])": {
        "params": {
          "array": "An array of five uint256 elements."
        },
        "returns": {
          "result": "The Poseidon hash of the five elements."
        }
      },
      "hashLeftRight(uint256,uint256)": {
        "params": {
          "left": "the first element to hash.",
          "right": "the second element to hash."
        },
        "returns": {
          "result": "The Poseidon hash of the two elements."
        }
      },
      "hashMessageAndEncPubKey((uint256[10]),(uint256,uint256))": {
        "params": {
          "_encPubKey": "the encryption public key to be hashed",
          "_message": "the message to be hashed"
        },
        "returns": {
          "msgHash": "The hash of the message and the encryption public key"
        }
      },
      "hashStateLeaf(((uint256,uint256),uint256,uint256))": {
        "params": {
          "_stateLeaf": "the state leaf to be hashed"
        },
        "returns": {
          "ciphertext": "The hash of the state leaf"
        }
      },
      "numSignUps()": {
        "returns": {
          "signUps": "numsignUps The number of signups"
        }
      },
      "owner()": {
        "details": "Returns the address of the current owner."
      },
      "padAndHashMessage(uint256[2])": {
        "params": {
          "dataToPad": "the data to be padded"
        },
        "returns": {
          "message": "The padded message",
          "msgHash": "The hash of the padded message and encryption key",
          "padKey": "The padding public key"
        }
      },
      "renounceOwnership()": {
        "details": "Leaves the contract without owner. It will not be possible to call `onlyOwner` functions. Can only be called by the current owner. NOTE: Renouncing ownership will leave the contract without an owner, thereby disabling any functionality that is only available to the owner."
      },
      "sha256Hash(uint256[])": {
        "params": {
          "array": "The array of uint256 elements."
        },
        "returns": {
          "result": "The SHA256 hash of the array."
        }
      },
      "signUp((uint256,uint256),bytes,bytes)": {
        "params": {
          "_initialVoiceCreditProxyData": "Data to pass to the     InitialVoiceCreditProxy, which allows it to determine how many voice     credits this user should have.",
          "_pubKey": "The user's desired public key.",
          "_signUpGatekeeperData": "Data to pass to the sign-up gatekeeper's     register() function. For instance, the POAPGatekeeper or     SignUpTokenGatekeeper requires this value to be the ABI-encoded     token ID."
        }
      },
      "transferOwnership(address)": {
        "details": "Transfers ownership of the contract to a new account (`newOwner`). Can only be called by the current owner."
      }
    },
    "title": "MACI - Minimum Anti-Collusion Infrastructure Version 1",
    "version": 1
  },
  "userdoc": {
    "errors": {
      "DefaultZeroBadIndex()": [
        {
          "notice": "Custom errors"
        }
      ],
      "InvalidMessage()": [
        {
          "notice": "custom errors"
        }
      ],
      "PoseidonHashLibrariesNotLinked()": [
        {
          "notice": "custom errors"
        }
      ]
    },
    "kind": "user",
    "methods": {
      "MESSAGE_DATA_LENGTH()": {
        "notice": "the length of a MACI message"
      },
      "deployPoll(uint256,(uint8,uint8,uint8,uint8),(uint256,uint256),address,address,uint8)": {
        "notice": "Deploy a new Poll contract."
      },
      "emptyBallotRoots(uint256)": {
        "notice": "The roots of the empty ballot trees"
      },
      "getPoll(uint256)": {
        "notice": "Get the Poll details"
      },
      "getStateTreeRoot()": {
        "notice": "Return the main root of the StateAq contract"
      },
      "hash2(uint256[2])": {
        "notice": "Computes the Poseidon hash of two uint256 elements."
      },
      "hash3(uint256[3])": {
        "notice": "Computes the Poseidon hash of three uint256 elements."
      },
      "hash4(uint256[4])": {
        "notice": "Computes the Poseidon hash of four uint256 elements."
      },
      "hash5(uint256[5])": {
        "notice": "Computes the Poseidon hash of five uint256 elements."
      },
      "hashLeftRight(uint256,uint256)": {
        "notice": "Computes the Poseidon hash of two uint256 elements."
      },
      "hashMessageAndEncPubKey((uint256[10]),(uint256,uint256))": {
        "notice": "An utility function used to hash a MACI message and an encryption public key"
      },
      "hashStateLeaf(((uint256,uint256),uint256,uint256))": {
        "notice": "An utility function used to hash a state leaf"
      },
      "initialVoiceCreditProxy()": {
        "notice": "The contract which provides the values of the initial voice credit balance per user"
      },
      "lazyIMTData()": {
        "notice": "The state tree. Represents a mapping between each user's public key and their voice credit balance."
      },
      "messageProcessorFactory()": {
        "notice": "Factory contract that deploy a MessageProcessor contract"
      },
      "nextPollId()": {
        "notice": "Each poll has an incrementing ID"
      },
      "numSignUps()": {
        "notice": "Get the number of signups"
      },
      "padAndHashMessage(uint256[2])": {
        "notice": "An utility function used to pad and hash a MACI message"
      },
      "pollFactory()": {
        "notice": "Factory contract that deploy a Poll contract"
      },
      "polls(uint256)": {
        "notice": "A mapping of poll IDs to Poll contracts."
      },
      "sha256Hash(uint256[])": {
        "notice": "Computes the SHA256 hash of an array of uint256 elements."
      },
      "signUp((uint256,uint256),bytes,bytes)": {
        "notice": "Allows any eligible user sign up. The sign-up gatekeeper should prevent double sign-ups or ineligible users from doing so.  This function will only succeed if the sign-up deadline has not passed. It also enqueues a fresh state leaf into the state AccQueue."
      },
      "signUpGatekeeper()": {
        "notice": "Address of the SignUpGatekeeper, a contract which determines whether a user may sign up to vote"
      },
      "stateTreeDepth()": {
        "notice": "The state tree depth is fixed. As such it should be as large as feasible so that there can be as many users as possible.  i.e. 2 ** 23 = 8388608 this should also match the parameter of the circom circuits.IMPORTANT: remember to change the ballot tree depth in contracts/ts/genEmptyBallotRootsContract.ts file if we change the state tree depth!"
      },
      "tallyFactory()": {
        "notice": "Factory contract that deploy a Tally contract"
      }
    },
    "notice": "A contract which allows users to sign up, and deploy new polls",
    "version": 1
  },
  "storageLayout": {
    "storage": [
      {
        "astId": 722,
        "contract": "contracts/maci-contracts/MACIWrapper.sol:MACIWrapper",
        "label": "emptyBallotRoots",
        "offset": 0,
        "slot": "0",
        "type": "t_array(t_uint256)5_storage"
      },
      {
        "astId": 725,
        "contract": "contracts/maci-contracts/MACIWrapper.sol:MACIWrapper",
        "label": "nextPollId",
        "offset": 0,
        "slot": "5",
        "type": "t_uint256"
      },
      {
        "astId": 730,
        "contract": "contracts/maci-contracts/MACIWrapper.sol:MACIWrapper",
        "label": "polls",
        "offset": 0,
        "slot": "6",
        "type": "t_mapping(t_uint256,t_address)"
      },
      {
        "astId": 746,
        "contract": "contracts/maci-contracts/MACIWrapper.sol:MACIWrapper",
        "label": "lazyIMTData",
        "offset": 0,
        "slot": "7",
        "type": "t_struct(LazyIMTData)2925_storage"
      },
      {
        "astId": 8,
        "contract": "contracts/maci-contracts/MACIWrapper.sol:MACIWrapper",
        "label": "_owner",
        "offset": 0,
        "slot": "9",
        "type": "t_address"
      },
      {
        "astId": 228,
        "contract": "contracts/maci-contracts/MACIWrapper.sol:MACIWrapper",
        "label": "_polls",
        "offset": 0,
        "slot": "10",
        "type": "t_mapping(t_uint256,t_struct(PollData)223_storage)"
      },
      {
        "astId": 231,
        "contract": "contracts/maci-contracts/MACIWrapper.sol:MACIWrapper",
        "label": "treeDepths",
        "offset": 0,
        "slot": "11",
        "type": "t_struct(TreeDepths)3712_storage"
      },
      {
        "astId": 234,
        "contract": "contracts/maci-contracts/MACIWrapper.sol:MACIWrapper",
        "label": "coordinatorPubKey",
        "offset": 0,
        "slot": "12",
        "type": "t_struct(PubKey)3685_storage"
      },
      {
        "astId": 236,
        "contract": "contracts/maci-contracts/MACIWrapper.sol:MACIWrapper",
        "label": "verifier",
        "offset": 0,
        "slot": "14",
        "type": "t_address"
      },
      {
        "astId": 238,
        "contract": "contracts/maci-contracts/MACIWrapper.sol:MACIWrapper",
        "label": "vkRegistry",
        "offset": 0,
        "slot": "15",
        "type": "t_address"
      },
      {
        "astId": 242,
        "contract": "contracts/maci-contracts/MACIWrapper.sol:MACIWrapper",
        "label": "pollIds",
        "offset": 0,
        "slot": "16",
        "type": "t_mapping(t_address,t_uint256)"
      },
      {
        "astId": 274,
        "contract": "contracts/maci-contracts/MACIWrapper.sol:MACIWrapper",
        "label": "isPublicKeyRegistered",
        "offset": 0,
        "slot": "17",
        "type": "t_mapping(t_uint256,t_mapping(t_uint256,t_bool))"
      }
    ],
    "types": {
      "t_address": {
        "encoding": "inplace",
        "label": "address",
        "numberOfBytes": "20"
      },
      "t_array(t_string_storage)dyn_storage": {
        "base": "t_string_storage",
        "encoding": "dynamic_array",
        "label": "string[]",
        "numberOfBytes": "32"
      },
      "t_array(t_uint256)5_storage": {
        "base": "t_uint256",
        "encoding": "inplace",
        "label": "uint256[5]",
        "numberOfBytes": "160"
      },
      "t_bool": {
        "encoding": "inplace",
        "label": "bool",
        "numberOfBytes": "1"
      },
      "t_bytes_storage": {
        "encoding": "bytes",
        "label": "bytes",
        "numberOfBytes": "32"
      },
      "t_mapping(t_address,t_uint256)": {
        "encoding": "mapping",
        "key": "t_address",
        "label": "mapping(address => uint256)",
        "numberOfBytes": "32",
        "value": "t_uint256"
      },
      "t_mapping(t_uint256,t_address)": {
        "encoding": "mapping",
        "key": "t_uint256",
        "label": "mapping(uint256 => address)",
        "numberOfBytes": "32",
        "value": "t_address"
      },
      "t_mapping(t_uint256,t_bool)": {
        "encoding": "mapping",
        "key": "t_uint256",
        "label": "mapping(uint256 => bool)",
        "numberOfBytes": "32",
        "value": "t_bool"
      },
      "t_mapping(t_uint256,t_mapping(t_uint256,t_bool))": {
        "encoding": "mapping",
        "key": "t_uint256",
        "label": "mapping(uint256 => mapping(uint256 => bool))",
        "numberOfBytes": "32",
        "value": "t_mapping(t_uint256,t_bool)"
      },
      "t_mapping(t_uint256,t_struct(PollData)223_storage)": {
        "encoding": "mapping",
        "key": "t_uint256",
        "label": "mapping(uint256 => struct MACIWrapper.PollData)",
        "numberOfBytes": "32",
        "value": "t_struct(PollData)223_storage"
      },
      "t_mapping(t_uint256,t_uint256)": {
        "encoding": "mapping",
        "key": "t_uint256",
        "label": "mapping(uint256 => uint256)",
        "numberOfBytes": "32",
        "value": "t_uint256"
      },
      "t_string_storage": {
        "encoding": "bytes",
        "label": "string",
        "numberOfBytes": "32"
      },
      "t_struct(LazyIMTData)2925_storage": {
        "encoding": "inplace",
        "label": "struct LazyIMTData",
        "members": [
          {
            "astId": 2918,
            "contract": "contracts/maci-contracts/MACIWrapper.sol:MACIWrapper",
            "label": "maxIndex",
            "offset": 0,
            "slot": "0",
            "type": "t_uint40"
          },
          {
            "astId": 2920,
            "contract": "contracts/maci-contracts/MACIWrapper.sol:MACIWrapper",
            "label": "numberOfLeaves",
            "offset": 5,
            "slot": "0",
            "type": "t_uint40"
          },
          {
            "astId": 2924,
            "contract": "contracts/maci-contracts/MACIWrapper.sol:MACIWrapper",
            "label": "elements",
            "offset": 0,
            "slot": "1",
            "type": "t_mapping(t_uint256,t_uint256)"
          }
        ],
        "numberOfBytes": "64"
      },
      "t_struct(PollContracts)762_storage": {
        "encoding": "inplace",
        "label": "struct MACI.PollContracts",
        "members": [
          {
            "astId": 757,
            "contract": "contracts/maci-contracts/MACIWrapper.sol:MACIWrapper",
            "label": "poll",
            "offset": 0,
            "slot": "0",
            "type": "t_address"
          },
          {
            "astId": 759,
            "contract": "contracts/maci-contracts/MACIWrapper.sol:MACIWrapper",
            "label": "messageProcessor",
            "offset": 0,
            "slot": "1",
            "type": "t_address"
          },
          {
            "astId": 761,
            "contract": "contracts/maci-contracts/MACIWrapper.sol:MACIWrapper",
            "label": "tally",
            "offset": 0,
            "slot": "2",
            "type": "t_address"
          }
        ],
        "numberOfBytes": "96"
      },
      "t_struct(PollData)223_storage": {
        "encoding": "inplace",
        "label": "struct MACIWrapper.PollData",
        "members": [
          {
            "astId": 202,
            "contract": "contracts/maci-contracts/MACIWrapper.sol:MACIWrapper",
            "label": "id",
            "offset": 0,
            "slot": "0",
            "type": "t_uint256"
          },
          {
            "astId": 204,
            "contract": "contracts/maci-contracts/MACIWrapper.sol:MACIWrapper",
            "label": "name",
            "offset": 0,
            "slot": "1",
            "type": "t_string_storage"
          },
          {
            "astId": 206,
            "contract": "contracts/maci-contracts/MACIWrapper.sol:MACIWrapper",
            "label": "encodedOptions",
            "offset": 0,
            "slot": "2",
            "type": "t_bytes_storage"
          },
          {
            "astId": 208,
            "contract": "contracts/maci-contracts/MACIWrapper.sol:MACIWrapper",
            "label": "metadata",
            "offset": 0,
            "slot": "3",
            "type": "t_string_storage"
          },
          {
            "astId": 211,
            "contract": "contracts/maci-contracts/MACIWrapper.sol:MACIWrapper",
            "label": "pollContracts",
            "offset": 0,
            "slot": "4",
            "type": "t_struct(PollContracts)762_storage"
          },
          {
            "astId": 213,
            "contract": "contracts/maci-contracts/MACIWrapper.sol:MACIWrapper",
            "label": "startTime",
            "offset": 0,
            "slot": "7",
            "type": "t_uint256"
          },
          {
            "astId": 215,
            "contract": "contracts/maci-contracts/MACIWrapper.sol:MACIWrapper",
            "label": "endTime",
            "offset": 0,
            "slot": "8",
            "type": "t_uint256"
          },
          {
            "astId": 217,
            "contract": "contracts/maci-contracts/MACIWrapper.sol:MACIWrapper",
            "label": "numOfOptions",
            "offset": 0,
            "slot": "9",
            "type": "t_uint256"
          },
          {
            "astId": 220,
            "contract": "contracts/maci-contracts/MACIWrapper.sol:MACIWrapper",
            "label": "options",
            "offset": 0,
            "slot": "10",
            "type": "t_array(t_string_storage)dyn_storage"
          },
          {
            "astId": 222,
            "contract": "contracts/maci-contracts/MACIWrapper.sol:MACIWrapper",
            "label": "tallyJsonCID",
            "offset": 0,
            "slot": "11",
            "type": "t_string_storage"
          }
        ],
        "numberOfBytes": "384"
      },
      "t_struct(PubKey)3685_storage": {
        "encoding": "inplace",
        "label": "struct DomainObjs.PubKey",
        "members": [
          {
            "astId": 3682,
            "contract": "contracts/maci-contracts/MACIWrapper.sol:MACIWrapper",
            "label": "x",
            "offset": 0,
            "slot": "0",
            "type": "t_uint256"
          },
          {
            "astId": 3684,
            "contract": "contracts/maci-contracts/MACIWrapper.sol:MACIWrapper",
            "label": "y",
            "offset": 0,
            "slot": "1",
            "type": "t_uint256"
          }
        ],
        "numberOfBytes": "64"
      },
      "t_struct(TreeDepths)3712_storage": {
        "encoding": "inplace",
        "label": "struct Params.TreeDepths",
        "members": [
          {
            "astId": 3705,
            "contract": "contracts/maci-contracts/MACIWrapper.sol:MACIWrapper",
            "label": "intStateTreeDepth",
            "offset": 0,
            "slot": "0",
            "type": "t_uint8"
          },
          {
            "astId": 3707,
            "contract": "contracts/maci-contracts/MACIWrapper.sol:MACIWrapper",
            "label": "messageTreeSubDepth",
            "offset": 1,
            "slot": "0",
            "type": "t_uint8"
          },
          {
            "astId": 3709,
            "contract": "contracts/maci-contracts/MACIWrapper.sol:MACIWrapper",
            "label": "messageTreeDepth",
            "offset": 2,
            "slot": "0",
            "type": "t_uint8"
          },
          {
            "astId": 3711,
            "contract": "contracts/maci-contracts/MACIWrapper.sol:MACIWrapper",
            "label": "voteOptionTreeDepth",
            "offset": 3,
            "slot": "0",
            "type": "t_uint8"
          }
        ],
        "numberOfBytes": "32"
      },
      "t_uint256": {
        "encoding": "inplace",
        "label": "uint256",
        "numberOfBytes": "32"
      },
      "t_uint40": {
        "encoding": "inplace",
        "label": "uint40",
        "numberOfBytes": "5"
      },
      "t_uint8": {
        "encoding": "inplace",
        "label": "uint8",
        "numberOfBytes": "1"
      }
    }
  }
}